{
  "contractName": "SmarterContractFactory",
  "abi": [
    {
      "inputs": [
        {
          "internalType": "address",
          "name": "_implementation",
          "type": "address"
        }
      ],
      "stateMutability": "nonpayable",
      "type": "constructor"
    },
    {
      "anonymous": false,
      "inputs": [
        {
          "indexed": false,
          "internalType": "string",
          "name": "externalId",
          "type": "string"
        },
        {
          "indexed": true,
          "internalType": "uint256",
          "name": "index",
          "type": "uint256"
        },
        {
          "indexed": false,
          "internalType": "address",
          "name": "contractAddress",
          "type": "address"
        },
        {
          "indexed": false,
          "internalType": "uint256[]",
          "name": "milestones",
          "type": "uint256[]"
        }
      ],
      "name": "LogNewContract",
      "type": "event"
    },
    {
      "inputs": [],
      "name": "contractCount",
      "outputs": [
        {
          "internalType": "uint256",
          "name": "",
          "type": "uint256"
        }
      ],
      "stateMutability": "view",
      "type": "function",
      "constant": true
    },
    {
      "inputs": [],
      "name": "implementation",
      "outputs": [
        {
          "internalType": "address",
          "name": "",
          "type": "address"
        }
      ],
      "stateMutability": "view",
      "type": "function",
      "constant": true
    },
    {
      "inputs": [
        {
          "internalType": "string",
          "name": "_externalId",
          "type": "string"
        },
        {
          "internalType": "address",
          "name": "_client",
          "type": "address"
        },
        {
          "internalType": "address",
          "name": "_provider",
          "type": "address"
        },
        {
          "internalType": "uint256[]",
          "name": "_milestones",
          "type": "uint256[]"
        }
      ],
      "name": "create",
      "outputs": [
        {
          "internalType": "address",
          "name": "",
          "type": "address"
        }
      ],
      "stateMutability": "nonpayable",
      "type": "function"
    },
    {
      "inputs": [
        {
          "internalType": "uint256",
          "name": "_index",
          "type": "uint256"
        }
      ],
      "name": "getContractAddress",
      "outputs": [
        {
          "internalType": "address",
          "name": "",
          "type": "address"
        }
      ],
      "stateMutability": "view",
      "type": "function",
      "constant": true
    }
  ],
  "bytecode": "0x60a06040526000805534801561001457600080fd5b50604051610b4b380380610b4b83398181016040528101906100369190610143565b600073ffffffffffffffffffffffffffffffffffffffff168173ffffffffffffffffffffffffffffffffffffffff1614156100a6576040517f08c379a000000000000000000000000000000000000000000000000000000000815260040161009d906101f3565b60405180910390fd5b8073ffffffffffffffffffffffffffffffffffffffff1660808173ffffffffffffffffffffffffffffffffffffffff168152505050610213565b600080fd5b600073ffffffffffffffffffffffffffffffffffffffff82169050919050565b6000610110826100e5565b9050919050565b61012081610105565b811461012b57600080fd5b50565b60008151905061013d81610117565b92915050565b600060208284031215610159576101586100e0565b5b60006101678482850161012e565b91505092915050565b600082825260208201905092915050565b7f496d706c656d656e746174696f6e20636f6e747261637420616464726573732060008201527f696e76616c696400000000000000000000000000000000000000000000000000602082015250565b60006101dd602783610170565b91506101e882610181565b604082019050919050565b6000602082019050818103600083015261020c816101d0565b9050919050565b6080516109176102346000396000818160f5015261013a01526109176000f3fe608060405234801561001057600080fd5b506004361061004c5760003560e01c80634687eb25146100515780635c60da1b146100815780638736381a1461009f578063aefa7d98146100bd575b600080fd5b61006b600480360381019061006691906104c3565b6100ed565b6040516100789190610579565b60405180910390f35b610089610138565b6040516100969190610579565b60405180910390f35b6100a761015c565b6040516100b491906105ad565b60405180910390f35b6100d760048036038101906100d291906105f4565b610162565b6040516100e49190610579565b60405180910390f35b6000806101197f000000000000000000000000000000000000000000000000000000000000000061019f565b905061012a81898989898989610274565b809150509695505050505050565b7f000000000000000000000000000000000000000000000000000000000000000081565b60005481565b60006001600083815260200190815260200160002060009054906101000a900473ffffffffffffffffffffffffffffffffffffffff169050919050565b60006040517f3d602d80600a3d3981f3363d3d373d3d3d363d7300000000000000000000000081528260601b60148201527f5af43d82803e903d91602b57fd5bf3000000000000000000000000000000000060288201526037816000f0915050600073ffffffffffffffffffffffffffffffffffffffff168173ffffffffffffffffffffffffffffffffffffffff16141561026f576040517f08c379a00000000000000000000000000000000000000000000000000000000081526004016102669061067e565b60405180910390fd5b919050565b8673ffffffffffffffffffffffffffffffffffffffff1663150ed0df8787878787876040518763ffffffff1660e01b81526004016102b79695949392919061075d565b600060405180830381600087803b1580156102d157600080fd5b505af11580156102e5573d6000803e3d6000fd5b50505050600080549050876001600083815260200190815260200160002060006101000a81548173ffffffffffffffffffffffffffffffffffffffff021916908373ffffffffffffffffffffffffffffffffffffffff160217905550600160005461035091906107e3565b600081905550807f767b3b2ecce9678c49d0cfaea30ac34a0505ed5f3119949e3fd8df459f543d7688888b878760405161038e959493929190610898565b60405180910390a25050505050505050565b600080fd5b600080fd5b600080fd5b600080fd5b600080fd5b60008083601f8401126103cf576103ce6103aa565b5b8235905067ffffffffffffffff8111156103ec576103eb6103af565b5b602083019150836001820283011115610408576104076103b4565b5b9250929050565b600073ffffffffffffffffffffffffffffffffffffffff82169050919050565b600061043a8261040f565b9050919050565b61044a8161042f565b811461045557600080fd5b50565b60008135905061046781610441565b92915050565b60008083601f840112610483576104826103aa565b5b8235905067ffffffffffffffff8111156104a05761049f6103af565b5b6020830191508360208202830111156104bc576104bb6103b4565b5b9250929050565b600080600080600080608087890312156104e0576104df6103a0565b5b600087013567ffffffffffffffff8111156104fe576104fd6103a5565b5b61050a89828a016103b9565b9650965050602061051d89828a01610458565b945050604061052e89828a01610458565b935050606087013567ffffffffffffffff81111561054f5761054e6103a5565b5b61055b89828a0161046d565b92509250509295509295509295565b6105738161042f565b82525050565b600060208201905061058e600083018461056a565b92915050565b6000819050919050565b6105a781610594565b82525050565b60006020820190506105c2600083018461059e565b92915050565b6105d181610594565b81146105dc57600080fd5b50565b6000813590506105ee816105c8565b92915050565b60006020828403121561060a576106096103a0565b5b6000610618848285016105df565b91505092915050565b600082825260208201905092915050565b7f455243313136373a20637265617465206661696c656400000000000000000000600082015250565b6000610668601683610621565b915061067382610632565b602082019050919050565b600060208201905081810360008301526106978161065b565b9050919050565b82818337600083830152505050565b6000601f19601f8301169050919050565b60006106ca8385610621565b93506106d783858461069e565b6106e0836106ad565b840190509392505050565b600082825260208201905092915050565b600080fd5b600061070d83856106eb565b93507f07ffffffffffffffffffffffffffffffffffffffffffffffffffffffffffffff8311156107405761073f6106fc565b5b60208302925061075183858461069e565b82840190509392505050565b6000608082019050818103600083015261077881888a6106be565b9050610787602083018761056a565b610794604083018661056a565b81810360608301526107a7818486610701565b9050979650505050505050565b7f4e487b7100000000000000000000000000000000000000000000000000000000600052601160045260246000fd5b60006107ee82610594565b91506107f983610594565b9250827fffffffffffffffffffffffffffffffffffffffffffffffffffffffffffffffff0382111561082e5761082d6107b4565b5b828201905092915050565b6000819050919050565b600061085e6108596108548461040f565b610839565b61040f565b9050919050565b600061087082610843565b9050919050565b600061088282610865565b9050919050565b61089281610877565b82525050565b600060608201905081810360008301526108b38187896106be565b90506108c26020830186610889565b81810360408301526108d5818486610701565b9050969550505050505056fea26469706673582212207237df503e17c9dd6b8bfb6345ac5b303f55d17ec75266dda5ba93f37de362c664736f6c63430008090033",
  "immutableReferences": {
    "542": [
      {
        "length": 32,
        "start": 245
      },
      {
        "length": 32,
        "start": 314
      }
    ]
  },
  "source": "// SPDX-License-Identifier: MIT\npragma solidity >=0.8.9 <0.9.0;\n\nimport \"@openzeppelin/contracts/proxy/Clones.sol\";\nimport \"./interfaces/ISmarterContractFactory.sol\";\nimport \"./interfaces/ISmarterContract.sol\";\n\n/// @title SmarterContractFactory - SmarterContract factory contract\n/// @author Manuel Kirstetter\n/// @notice Use for testing purpose only, no guarantee\n/// @custom:experimental This is an experimental contract.\ncontract SmarterContractFactory is ISmarterContractFactory {\n    /// @notice count of all 'child' contracts\n    /// @return returns the count of 'child' contracts\n    uint256 public contractCount = 0;\n\n    /// @notice contract address from which all 'child' contract should be implemented from\n    /// @dev immutable\n    /// @return returns implementation contract address\n    address public immutable implementation;\n\n    mapping(uint256 => address) internal _contracts;\n\n    /// @notice event fired at 'child' contract creation\n    /// @param externalId contract external id\n    /// @param index contract id/index\n    /// @param contractAddress created contract address\n    /// @param milestones array of all created contract milestones\n    event LogNewContract(\n        string externalId,\n        uint256 indexed index,\n        address contractAddress,\n        uint256[] milestones\n    );\n\n    constructor(address _implementation) {\n        require(_implementation != address(0), \"Implementation contract address invalid\");\n        implementation = _implementation;\n    }\n\n    /// @notice calls initialization of a new contract with provided params\n    /// @param _contractAddress contract address\n    /// @param _externalId contract external id\n    /// @param _client client address\n    /// @param _provider provider address\n    /// @param _milestones array of milestone amounts\n    /// @dev _milestones is available only during this function call\n    function _init(\n        address payable _contractAddress,\n        string calldata _externalId,\n        address _client,\n        address _provider,\n        uint256[] calldata _milestones\n    ) internal {\n        ISmarterContract(_contractAddress).init(\n            _externalId,\n            _client,\n            _provider,\n            _milestones\n        );\n\n        uint256 contractId = contractCount;\n        _contracts[contractId] = _contractAddress;\n        contractCount = contractCount + 1;\n\n        emit LogNewContract(_externalId, contractId, _contractAddress, _milestones);\n    }\n\n    /// @notice generates contract address calls initialization of a new contract with provided params\n    /// @param _externalId contract external id\n    /// @param _client client address\n    /// @param _provider provider address\n    /// @param _milestones array of milestone amounts\n    /// @dev _milestones is available only during this function call\n    /// @return Returns created contract address\n    function create(\n        string calldata _externalId,\n        address _client,\n        address _provider,\n        uint256[] calldata _milestones\n    ) external override returns (address) {\n        address payable contractAddress = payable(address(Clones.clone(implementation)));\n\n        _init(\n            contractAddress,\n            _externalId,\n            _client,\n            _provider,\n            _milestones\n        );\n\n        return contractAddress;\n    }\n\n    /// @notice to get contract address of id/index \n    /// @param _index contract id/index\n    /// @return Returns contract address of id/index\n    function getContractAddress(uint256 _index) public view returns (address) {\n        return _contracts[_index];\n    }\n}",
  "sourcePath": "/Users/manu/Blockchain/blockchain-developer-bootcamp-final-project/contracts/SmarterContractFactory.sol",
  "compiler": {
    "name": "solc",
    "version": "0.8.9+commit.e5eed63a.Emscripten.clang"
  },
  "schemaVersion": "3.4.3",
  "updatedAt": "2021-11-25T19:37:57.366Z",
  "networkType": "ethereum",
  "devdoc": {
    "author": "Manuel Kirstetter",
    "custom:experimental": "This is an experimental contract.",
    "events": {
      "LogNewContract(string,uint256,address,uint256[])": {
        "params": {
          "contractAddress": "created contract address",
          "externalId": "contract external id",
          "index": "contract id/index",
          "milestones": "array of all created contract milestones"
        }
      }
    },
    "kind": "dev",
    "methods": {
      "create(string,address,address,uint256[])": {
        "details": "_milestones is available only during this function call",
        "params": {
          "_client": "client address",
          "_externalId": "contract external id",
          "_milestones": "array of milestone amounts",
          "_provider": "provider address"
        },
        "returns": {
          "_0": "Returns created contract address"
        }
      },
      "getContractAddress(uint256)": {
        "params": {
          "_index": "contract id/index"
        },
        "returns": {
          "_0": "Returns contract address of id/index"
        }
      }
    },
    "stateVariables": {
      "contractCount": {
        "return": "returns the count of 'child' contracts",
        "returns": {
          "_0": "returns the count of 'child' contracts"
        }
      },
      "implementation": {
        "details": "immutable",
        "return": "returns implementation contract address",
        "returns": {
          "_0": "returns implementation contract address"
        }
      }
    },
    "title": "SmarterContractFactory - SmarterContract factory contract",
    "version": 1
  },
  "userdoc": {
    "events": {
      "LogNewContract(string,uint256,address,uint256[])": {
        "notice": "event fired at 'child' contract creation"
      }
    },
    "kind": "user",
    "methods": {
      "contractCount()": {
        "notice": "count of all 'child' contracts"
      },
      "create(string,address,address,uint256[])": {
        "notice": "generates contract address calls initialization of a new contract with provided params"
      },
      "getContractAddress(uint256)": {
        "notice": "to get contract address of id/index "
      },
      "implementation()": {
        "notice": "contract address from which all 'child' contract should be implemented from"
      }
    },
    "notice": "Use for testing purpose only, no guarantee",
    "version": 1
  }
}