{
  "contractName": "SmartGigs",
  "abi": [
    {
      "inputs": [],
      "stateMutability": "nonpayable",
      "type": "constructor"
    },
    {
      "anonymous": false,
      "inputs": [
        {
          "indexed": false,
          "internalType": "uint256",
          "name": "gigId",
          "type": "uint256"
        }
      ],
      "name": "LogEnrolled",
      "type": "event"
    },
    {
      "anonymous": false,
      "inputs": [
        {
          "indexed": false,
          "internalType": "uint256",
          "name": "gigId",
          "type": "uint256"
        },
        {
          "indexed": false,
          "internalType": "enum SmartGigs.Status",
          "name": "",
          "type": "uint8"
        }
      ],
      "name": "LogGigStatusChange",
      "type": "event"
    },
    {
      "anonymous": false,
      "inputs": [
        {
          "indexed": false,
          "internalType": "uint256",
          "name": "gigId",
          "type": "uint256"
        }
      ],
      "name": "LogWorkSubmitted",
      "type": "event"
    },
    {
      "inputs": [
        {
          "internalType": "uint256",
          "name": "",
          "type": "uint256"
        },
        {
          "internalType": "uint256",
          "name": "",
          "type": "uint256"
        }
      ],
      "name": "enrolledFreelancers",
      "outputs": [
        {
          "internalType": "address",
          "name": "",
          "type": "address"
        }
      ],
      "stateMutability": "view",
      "type": "function",
      "constant": true
    },
    {
      "inputs": [
        {
          "internalType": "uint256",
          "name": "",
          "type": "uint256"
        }
      ],
      "name": "gigs",
      "outputs": [
        {
          "internalType": "string",
          "name": "name",
          "type": "string"
        },
        {
          "internalType": "uint256",
          "name": "compensation",
          "type": "uint256"
        },
        {
          "internalType": "enum SmartGigs.Status",
          "name": "status",
          "type": "uint8"
        },
        {
          "internalType": "address",
          "name": "owner",
          "type": "address"
        },
        {
          "internalType": "uint8",
          "name": "freelancersNumber",
          "type": "uint8"
        },
        {
          "internalType": "uint8",
          "name": "enrolled",
          "type": "uint8"
        },
        {
          "internalType": "uint8",
          "name": "works",
          "type": "uint8"
        },
        {
          "internalType": "address",
          "name": "awardedTo",
          "type": "address"
        }
      ],
      "stateMutability": "view",
      "type": "function",
      "constant": true
    },
    {
      "inputs": [],
      "name": "gigsCount",
      "outputs": [
        {
          "internalType": "uint256",
          "name": "",
          "type": "uint256"
        }
      ],
      "stateMutability": "view",
      "type": "function",
      "constant": true
    },
    {
      "inputs": [
        {
          "internalType": "address",
          "name": "",
          "type": "address"
        },
        {
          "internalType": "uint256",
          "name": "",
          "type": "uint256"
        }
      ],
      "name": "worksByFreelancer",
      "outputs": [
        {
          "internalType": "uint256",
          "name": "gigId",
          "type": "uint256"
        },
        {
          "internalType": "address",
          "name": "owner",
          "type": "address"
        },
        {
          "internalType": "address",
          "name": "contractAddress",
          "type": "address"
        },
        {
          "internalType": "bool",
          "name": "valid",
          "type": "bool"
        }
      ],
      "stateMutability": "view",
      "type": "function",
      "constant": true
    },
    {
      "inputs": [
        {
          "internalType": "uint256",
          "name": "",
          "type": "uint256"
        },
        {
          "internalType": "uint256",
          "name": "",
          "type": "uint256"
        }
      ],
      "name": "worksByGig",
      "outputs": [
        {
          "internalType": "uint256",
          "name": "gigId",
          "type": "uint256"
        },
        {
          "internalType": "address",
          "name": "owner",
          "type": "address"
        },
        {
          "internalType": "address",
          "name": "contractAddress",
          "type": "address"
        },
        {
          "internalType": "bool",
          "name": "valid",
          "type": "bool"
        }
      ],
      "stateMutability": "view",
      "type": "function",
      "constant": true
    },
    {
      "inputs": [
        {
          "internalType": "string",
          "name": "_name",
          "type": "string"
        },
        {
          "internalType": "uint8",
          "name": "_freelancersNumber",
          "type": "uint8"
        }
      ],
      "name": "createGig",
      "outputs": [
        {
          "internalType": "bool",
          "name": "",
          "type": "bool"
        }
      ],
      "stateMutability": "payable",
      "type": "function",
      "payable": true
    },
    {
      "inputs": [
        {
          "internalType": "uint256",
          "name": "_gigId",
          "type": "uint256"
        }
      ],
      "name": "enroll",
      "outputs": [
        {
          "internalType": "address",
          "name": "",
          "type": "address"
        }
      ],
      "stateMutability": "payable",
      "type": "function",
      "payable": true
    },
    {
      "inputs": [
        {
          "internalType": "uint256",
          "name": "_gigId",
          "type": "uint256"
        }
      ],
      "name": "isEnrolled",
      "outputs": [
        {
          "internalType": "bool",
          "name": "",
          "type": "bool"
        }
      ],
      "stateMutability": "view",
      "type": "function",
      "constant": true
    },
    {
      "inputs": [
        {
          "internalType": "uint256",
          "name": "_gigId",
          "type": "uint256"
        },
        {
          "internalType": "address",
          "name": "_contractAddress",
          "type": "address"
        }
      ],
      "name": "submitWork",
      "outputs": [
        {
          "internalType": "bool",
          "name": "",
          "type": "bool"
        }
      ],
      "stateMutability": "nonpayable",
      "type": "function"
    },
    {
      "inputs": [
        {
          "internalType": "uint256",
          "name": "_gigId",
          "type": "uint256"
        },
        {
          "internalType": "address",
          "name": "_awardedFreelancer",
          "type": "address"
        }
      ],
      "name": "awardTo",
      "outputs": [
        {
          "internalType": "address",
          "name": "",
          "type": "address"
        }
      ],
      "stateMutability": "nonpayable",
      "type": "function"
    }
  ],
  "bytecode": "0x608060405267016345785d8a000060015534801561001c57600080fd5b506000808190555061257a806100336000396000f3fe6080604052600436106100915760003560e01c80638f8fd61a116100595780638f8fd61a146101c7578063c83269f614610204578063d1bb8c531461022f578063eaa7e5cc1461026c578063f57d585b146102a957610091565b8063106133731461009657806313a94131146100d65780632674ba231461011657806338c4476a146101535780635e3fbdc814610183575b600080fd5b3480156100a257600080fd5b506100bd60048036038101906100b891906118c2565b6102d9565b6040516100cd949392919061196d565b60405180910390f35b3480156100e257600080fd5b506100fd60048036038101906100f891906119de565b610373565b60405161010d949392919061196d565b60405180910390f35b34801561012257600080fd5b5061013d60048036038101906101389190611a1e565b61040d565b60405161014a9190611a5e565b60405180910390f35b61016d60048036038101906101689190611bf8565b6109b8565b60405161017a9190611a5e565b60405180910390f35b34801561018f57600080fd5b506101aa60048036038101906101a59190611c54565b610cac565b6040516101be989796959493929190611d8f565b60405180910390f35b3480156101d357600080fd5b506101ee60048036038101906101e99190611a1e565b610df0565b6040516101fb9190611e14565b60405180910390f35b34801561021057600080fd5b50610219611071565b6040516102269190611e2f565b60405180910390f35b34801561023b57600080fd5b5061025660048036038101906102519190611c54565b611077565b6040516102639190611a5e565b60405180910390f35b34801561027857600080fd5b50610293600480360381019061028e91906118c2565b6111f1565b6040516102a09190611e14565b60405180910390f35b6102c360048036038101906102be9190611c54565b61123f565b6040516102d09190611e14565b60405180910390f35b600560205281600052604060002081815481106102f557600080fd5b9060005260206000209060030201600091509150508060000154908060010160009054906101000a900473ffffffffffffffffffffffffffffffffffffffff16908060020160009054906101000a900473ffffffffffffffffffffffffffffffffffffffff16908060020160149054906101000a900460ff16905084565b6004602052816000526040600020818154811061038f57600080fd5b9060005260206000209060030201600091509150508060000154908060010160009054906101000a900473ffffffffffffffffffffffffffffffffffffffff16908060020160009054906101000a900473ffffffffffffffffffffffffffffffffffffffff16908060020160149054906101000a900460ff16905084565b60006002600084815260200190815260200160002060020160019054906101000a900473ffffffffffffffffffffffffffffffffffffffff168073ffffffffffffffffffffffffffffffffffffffff163373ffffffffffffffffffffffffffffffffffffffff1614156104b5576040517f08c379a00000000000000000000000000000000000000000000000000000000081526004016104ac90611ebc565b60405180910390fd5b600160038111156104c9576104c8611d09565b5b6002600086815260200190815260200160002060020160009054906101000a900460ff1660038111156104ff576104fe611d09565b5b1461053f576040517f08c379a000000000000000000000000000000000000000000000000000000000815260040161053690611f28565b60405180910390fd5b6001151561054c85611077565b15151461058e576040517f08c379a000000000000000000000000000000000000000000000000000000000815260040161058590611f94565b60405180910390fd5b6000151561059b856115a3565b1515146105dd576040517f08c379a00000000000000000000000000000000000000000000000000000000081526004016105d490612026565b60405180910390fd5b600060405180608001604052808681526020013373ffffffffffffffffffffffffffffffffffffffff1681526020018573ffffffffffffffffffffffffffffffffffffffff168152602001600115158152509050600560008681526020019081526020016000208190806001815401808255809150506001900390600052602060002090600302016000909190919091506000820151816000015560208201518160010160006101000a81548173ffffffffffffffffffffffffffffffffffffffff021916908373ffffffffffffffffffffffffffffffffffffffff16021790555060408201518160020160006101000a81548173ffffffffffffffffffffffffffffffffffffffff021916908373ffffffffffffffffffffffffffffffffffffffff16021790555060608201518160020160146101000a81548160ff0219169083151502179055505050600460003373ffffffffffffffffffffffffffffffffffffffff1673ffffffffffffffffffffffffffffffffffffffff1681526020019081526020016000208190806001815401808255809150506001900390600052602060002090600302016000909190919091506000820151816000015560208201518160010160006101000a81548173ffffffffffffffffffffffffffffffffffffffff021916908373ffffffffffffffffffffffffffffffffffffffff16021790555060408201518160020160006101000a81548173ffffffffffffffffffffffffffffffffffffffff021916908373ffffffffffffffffffffffffffffffffffffffff16021790555060608201518160020160146101000a81548160ff021916908315150217905550505060016002600087815260200190815260200160002060020160178282829054906101000a900460ff1661087e9190612075565b92506101000a81548160ff021916908360ff1602179055506002600086815260200190815260200160002060020160159054906101000a900460ff1660ff166005600087815260200190815260200160002080549050141561097557600280600087815260200190815260200160002060020160006101000a81548160ff0219169083600381111561091357610912611d09565b5b02179055507f4df6e143fd09a93aabb5c1afeee86b614d42f2f4fcef12f25ed5941f6acf07da856002600088815260200190815260200160002060020160009054906101000a900460ff1660405161096c9291906120ac565b60405180910390a15b7f583c8c694dabe8165afc8542b4e701d5a9387865ad4a5113da5ac03c99e38e0b856040516109a49190611e2f565b60405180910390a160019250505092915050565b60006001543410156109ff576040517f08c379a00000000000000000000000000000000000000000000000000000000081526004016109f690612147565b60405180910390fd5b60018260ff161015610a46576040517f08c379a0000000000000000000000000000000000000000000000000000000008152600401610a3d906121d9565b60405180910390fd5b6001600080828254610a5891906121f9565b9250508190555060405180610100016040528084815260200134815260200160006003811115610a8b57610a8a611d09565b5b81526020013373ffffffffffffffffffffffffffffffffffffffff1681526020018360ff168152602001600060ff168152602001600060ff168152602001600073ffffffffffffffffffffffffffffffffffffffff1681525060026000805481526020019081526020016000206000820151816000019080519060200190610b149291906117d5565b506020820151816001015560408201518160020160006101000a81548160ff02191690836003811115610b4a57610b49611d09565b5b021790555060608201518160020160016101000a81548173ffffffffffffffffffffffffffffffffffffffff021916908373ffffffffffffffffffffffffffffffffffffffff16021790555060808201518160020160156101000a81548160ff021916908360ff16021790555060a08201518160020160166101000a81548160ff021916908360ff16021790555060c08201518160020160176101000a81548160ff021916908360ff16021790555060e08201518160030160006101000a81548173ffffffffffffffffffffffffffffffffffffffff021916908373ffffffffffffffffffffffffffffffffffffffff1602179055509050507f4df6e143fd09a93aabb5c1afeee86b614d42f2f4fcef12f25ed5941f6acf07da600054600260008054815260200190815260200160002060020160009054906101000a900460ff16604051610c9a9291906120ac565b60405180910390a16001905092915050565b6002602052806000526040600020600091509050806000018054610ccf9061227e565b80601f0160208091040260200160405190810160405280929190818152602001828054610cfb9061227e565b8015610d485780601f10610d1d57610100808354040283529160200191610d48565b820191906000526020600020905b815481529060010190602001808311610d2b57829003601f168201915b5050505050908060010154908060020160009054906101000a900460ff16908060020160019054906101000a900473ffffffffffffffffffffffffffffffffffffffff16908060020160159054906101000a900460ff16908060020160169054906101000a900460ff16908060020160179054906101000a900460ff16908060030160009054906101000a900473ffffffffffffffffffffffffffffffffffffffff16905088565b60006002600084815260200190815260200160002060020160019054906101000a900473ffffffffffffffffffffffffffffffffffffffff168073ffffffffffffffffffffffffffffffffffffffff163373ffffffffffffffffffffffffffffffffffffffff1614610e97576040517f08c379a0000000000000000000000000000000000000000000000000000000008152600401610e8e906122fc565b60405180910390fd5b60026003811115610eab57610eaa611d09565b5b6002600086815260200190815260200160002060020160009054906101000a900460ff166003811115610ee157610ee0611d09565b5b14610f21576040517f08c379a0000000000000000000000000000000000000000000000000000000008152600401610f1890611f28565b60405180910390fd5b826002600086815260200190815260200160002060030160006101000a81548173ffffffffffffffffffffffffffffffffffffffff021916908373ffffffffffffffffffffffffffffffffffffffff16021790555060036002600086815260200190815260200160002060020160006101000a81548160ff02191690836003811115610fb057610faf611d09565b5b02179055507f4df6e143fd09a93aabb5c1afeee86b614d42f2f4fcef12f25ed5941f6acf07da846002600087815260200190815260200160002060020160009054906101000a900460ff166040516110099291906120ac565b60405180910390a16110676002600086815260200190815260200160002060030160009054906101000a900473ffffffffffffffffffffffffffffffffffffffff166002600087815260200190815260200160002060010154611724565b8291505092915050565b60005481565b60006002600083815260200190815260200160002060020160019054906101000a900473ffffffffffffffffffffffffffffffffffffffff168073ffffffffffffffffffffffffffffffffffffffff163373ffffffffffffffffffffffffffffffffffffffff16141561111f576040517f08c379a000000000000000000000000000000000000000000000000000000000815260040161111690611ebc565b60405180910390fd5b6000805b60036000868152602001908152602001600020805490508110156111e6573373ffffffffffffffffffffffffffffffffffffffff1660036000878152602001908152602001600020828154811061117d5761117c61231c565b5b9060005260206000200160009054906101000a900473ffffffffffffffffffffffffffffffffffffffff1673ffffffffffffffffffffffffffffffffffffffff161480156111c9575081155b156111d357600191505b80806111de9061234b565b915050611123565b508092505050919050565b6003602052816000526040600020818154811061120d57600080fd5b906000526020600020016000915091509054906101000a900473ffffffffffffffffffffffffffffffffffffffff1681565b60006002600083815260200190815260200160002060020160019054906101000a900473ffffffffffffffffffffffffffffffffffffffff168073ffffffffffffffffffffffffffffffffffffffff163373ffffffffffffffffffffffffffffffffffffffff1614156112e7576040517f08c379a00000000000000000000000000000000000000000000000000000000081526004016112de90611ebc565b60405180910390fd5b82600060038111156112fc576112fb611d09565b5b6002600083815260200190815260200160002060020160009054906101000a900460ff16600381111561133257611331611d09565b5b14611372576040517f08c379a0000000000000000000000000000000000000000000000000000000008152600401611369906123e0565b60405180910390fd5b836000151561138082611077565b1515146113c2576040517f08c379a00000000000000000000000000000000000000000000000000000000081526004016113b990612472565b60405180910390fd5b60036000868152602001908152602001600020339080600181540180825580915050600190039060005260206000200160009091909190916101000a81548173ffffffffffffffffffffffffffffffffffffffff021916908373ffffffffffffffffffffffffffffffffffffffff16021790555060016002600087815260200190815260200160002060020160168282829054906101000a900460ff166114699190612075565b92506101000a81548160ff021916908360ff1602179055506002600086815260200190815260200160002060020160159054906101000a900460ff1660ff16600360008781526020019081526020016000208054905014156115615760016002600087815260200190815260200160002060020160006101000a81548160ff021916908360038111156114ff576114fe611d09565b5b02179055507f4df6e143fd09a93aabb5c1afeee86b614d42f2f4fcef12f25ed5941f6acf07da856002600088815260200190815260200160002060020160009054906101000a900460ff166040516115589291906120ac565b60405180910390a15b7f85d7ded8ed66069b914688b9f5ac43461ded75a3992b6b2321adbba65266ff63856040516115909190611e2f565b60405180910390a1339350505050919050565b60006002600083815260200190815260200160002060020160019054906101000a900473ffffffffffffffffffffffffffffffffffffffff168073ffffffffffffffffffffffffffffffffffffffff163373ffffffffffffffffffffffffffffffffffffffff16141561164b576040517f08c379a000000000000000000000000000000000000000000000000000000000815260040161164290611ebc565b60405180910390fd5b6000805b6005600086815260200190815260200160002080549050811015611719573373ffffffffffffffffffffffffffffffffffffffff166005600087815260200190815260200160002082815481106116a9576116a861231c565b5b906000526020600020906003020160010160009054906101000a900473ffffffffffffffffffffffffffffffffffffffff1673ffffffffffffffffffffffffffffffffffffffff161480156116fc575081155b1561170657600191505b80806117119061234b565b91505061164f565b508092505050919050565b60008273ffffffffffffffffffffffffffffffffffffffff168260405161174a906124c3565b60006040518083038185875af1925050503d8060008114611787576040519150601f19603f3d011682016040523d82523d6000602084013e61178c565b606091505b50509050806117d0576040517f08c379a00000000000000000000000000000000000000000000000000000000081526004016117c790612524565b60405180910390fd5b505050565b8280546117e19061227e565b90600052602060002090601f016020900481019282611803576000855561184a565b82601f1061181c57805160ff191683800117855561184a565b8280016001018555821561184a579182015b8281111561184957825182559160200191906001019061182e565b5b509050611857919061185b565b5090565b5b8082111561187457600081600090555060010161185c565b5090565b6000604051905090565b600080fd5b600080fd5b6000819050919050565b61189f8161188c565b81146118aa57600080fd5b50565b6000813590506118bc81611896565b92915050565b600080604083850312156118d9576118d8611882565b5b60006118e7858286016118ad565b92505060206118f8858286016118ad565b9150509250929050565b61190b8161188c565b82525050565b600073ffffffffffffffffffffffffffffffffffffffff82169050919050565b600061193c82611911565b9050919050565b61194c81611931565b82525050565b60008115159050919050565b61196781611952565b82525050565b60006080820190506119826000830187611902565b61198f6020830186611943565b61199c6040830185611943565b6119a9606083018461195e565b95945050505050565b6119bb81611931565b81146119c657600080fd5b50565b6000813590506119d8816119b2565b92915050565b600080604083850312156119f5576119f4611882565b5b6000611a03858286016119c9565b9250506020611a14858286016118ad565b9150509250929050565b60008060408385031215611a3557611a34611882565b5b6000611a43858286016118ad565b9250506020611a54858286016119c9565b9150509250929050565b6000602082019050611a73600083018461195e565b92915050565b600080fd5b600080fd5b6000601f19601f8301169050919050565b7f4e487b7100000000000000000000000000000000000000000000000000000000600052604160045260246000fd5b611acc82611a83565b810181811067ffffffffffffffff82111715611aeb57611aea611a94565b5b80604052505050565b6000611afe611878565b9050611b0a8282611ac3565b919050565b600067ffffffffffffffff821115611b2a57611b29611a94565b5b611b3382611a83565b9050602081019050919050565b82818337600083830152505050565b6000611b62611b5d84611b0f565b611af4565b905082815260208101848484011115611b7e57611b7d611a7e565b5b611b89848285611b40565b509392505050565b600082601f830112611ba657611ba5611a79565b5b8135611bb6848260208601611b4f565b91505092915050565b600060ff82169050919050565b611bd581611bbf565b8114611be057600080fd5b50565b600081359050611bf281611bcc565b92915050565b60008060408385031215611c0f57611c0e611882565b5b600083013567ffffffffffffffff811115611c2d57611c2c611887565b5b611c3985828601611b91565b9250506020611c4a85828601611be3565b9150509250929050565b600060208284031215611c6a57611c69611882565b5b6000611c78848285016118ad565b91505092915050565b600081519050919050565b600082825260208201905092915050565b60005b83811015611cbb578082015181840152602081019050611ca0565b83811115611cca576000848401525b50505050565b6000611cdb82611c81565b611ce58185611c8c565b9350611cf5818560208601611c9d565b611cfe81611a83565b840191505092915050565b7f4e487b7100000000000000000000000000000000000000000000000000000000600052602160045260246000fd5b60048110611d4957611d48611d09565b5b50565b6000819050611d5a82611d38565b919050565b6000611d6a82611d4c565b9050919050565b611d7a81611d5f565b82525050565b611d8981611bbf565b82525050565b6000610100820190508181036000830152611daa818b611cd0565b9050611db9602083018a611902565b611dc66040830189611d71565b611dd36060830188611943565b611de06080830187611d80565b611ded60a0830186611d80565b611dfa60c0830185611d80565b611e0760e0830184611943565b9998505050505050505050565b6000602082019050611e296000830184611943565b92915050565b6000602082019050611e446000830184611902565b92915050565b7f596f75206172652074686520676967206f776e65722c20796f752063616e277460008201527f20656e726f6c6c2f7375626d697420776f726b2e000000000000000000000000602082015250565b6000611ea6603483611c8c565b9150611eb182611e4a565b604082019050919050565b60006020820190508181036000830152611ed581611e99565b9050919050565b7f47696720737461747573206973206e6f742076616c69642e0000000000000000600082015250565b6000611f12601883611c8c565b9150611f1d82611edc565b602082019050919050565b60006020820190508181036000830152611f4181611f05565b9050919050565b7f596f75277265206e6f7420656e726f6c6c656420746f2074686973206769672e600082015250565b6000611f7e602083611c8c565b9150611f8982611f48565b602082019050919050565b60006020820190508181036000830152611fad81611f71565b9050919050565b7f596f7527766520616c7265616479207375626d697420796f757220776f726b2060008201527f746f2074686973206769672e0000000000000000000000000000000000000000602082015250565b6000612010602c83611c8c565b915061201b82611fb4565b604082019050919050565b6000602082019050818103600083015261203f81612003565b9050919050565b7f4e487b7100000000000000000000000000000000000000000000000000000000600052601160045260246000fd5b600061208082611bbf565b915061208b83611bbf565b92508260ff038211156120a1576120a0612046565b5b828201905092915050565b60006040820190506120c16000830185611902565b6120ce6020830184611d71565b9392505050565b7f42656c6f7720746865207265717569726564206d696e696d756d20636f6d706560008201527f6e736174696f6e2e000000000000000000000000000000000000000000000000602082015250565b6000612131602883611c8c565b915061213c826120d5565b604082019050919050565b6000602082019050818103600083015261216081612124565b9050919050565b7f42656c6f7720746865207265717569726564206d696e696d756d20667265656c60008201527f616e636572734e756d6265722e00000000000000000000000000000000000000602082015250565b60006121c3602d83611c8c565b91506121ce82612167565b604082019050919050565b600060208201905081810360008301526121f2816121b6565b9050919050565b60006122048261188c565b915061220f8361188c565b9250827fffffffffffffffffffffffffffffffffffffffffffffffffffffffffffffffff0382111561224457612243612046565b5b828201905092915050565b7f4e487b7100000000000000000000000000000000000000000000000000000000600052602260045260246000fd5b6000600282049050600182168061229657607f821691505b602082108114156122aa576122a961224f565b5b50919050565b7f596f7520617265206e6f742074686520676967206f776e65722e000000000000600082015250565b60006122e6601a83611c8c565b91506122f1826122b0565b602082019050919050565b60006020820190508181036000830152612315816122d9565b9050919050565b7f4e487b7100000000000000000000000000000000000000000000000000000000600052603260045260246000fd5b60006123568261188c565b91507fffffffffffffffffffffffffffffffffffffffffffffffffffffffffffffffff82141561238957612388612046565b5b600182019050919050565b7f596f752063616e277420656e726f6c6c20746f2074686973206769672e000000600082015250565b60006123ca601d83611c8c565b91506123d582612394565b602082019050919050565b600060208201905081810360008301526123f9816123bd565b9050919050565b7f596f7527726520616c726561647920656e726f6c6c656420746f20746869732060008201527f6769672e00000000000000000000000000000000000000000000000000000000602082015250565b600061245c602483611c8c565b915061246782612400565b604082019050919050565b6000602082019050818103600083015261248b8161244f565b9050919050565b600081905092915050565b50565b60006124ad600083612492565b91506124b88261249d565b600082019050919050565b60006124ce826124a0565b9150819050919050565b7f4661696c656420746f2073656e642045746865722e0000000000000000000000600082015250565b600061250e601583611c8c565b9150612519826124d8565b602082019050919050565b6000602082019050818103600083015261253d81612501565b905091905056fea2646970667358221220206278a41d93c194d01e76e2e1741022be46801282c2371b126b857865e8621364736f6c63430008090033",
  "immutableReferences": {},
  "source": "// SPDX-License-Identifier: MIT\npragma solidity >=0.8.9 <0.9.0;\n\ncontract SmartGigs {\n\n    uint public gigsCount;\n\n    // Minimum freelancers compensation\n    uint minimumCompensation = 100000000000000000;\n\n    // Gig statuses\n    enum Status { registered, open, review, awarded }\n\n\n    // Gigs\n    struct Gig {\n        string name;\n        uint compensation;\n        Status status;\n        address owner;\n        // Number of Freelancers allowed to enroll\n        uint8 freelancersNumber;\n        // Number of Freelancers enrolled\n        uint8 enrolled;\n        uint8 works;\n        address awardedTo;\n    }\n\n    mapping (uint => Gig) public gigs;\n\n\n    // Works\n    // @TODO: validate contractAddress (see README)\n    struct Work {\n        uint gigId;\n        address owner;\n        address contractAddress;\n        bool valid;\n    }\n\n    // To get all Freelancers per gigId\n    mapping (uint => address[]) public enrolledFreelancers;\n    // To get all Works per Freelancer address\n    mapping (address => Work[]) public worksByFreelancer;\n    // To get all Works per gigId\n    mapping (uint => Work[]) public worksByGig;\n\n\n    // Events\n    event LogGigStatusChange(uint gigId, Status);\n    event LogEnrolled(uint gigId);\n    event LogWorkSubmitted(uint gigId);\n\n\n    // Modifiers\n    modifier isOwner (address _address) {\n        require (msg.sender == _address, \"You are not the gig owner.\");\n        _;\n    }\n\n    modifier isNotOwner (address _address) {\n        require (msg.sender != _address, \"You are the gig owner, you can't enroll/submit work.\");\n        _;\n    }\n\n    modifier isStatusRegistered (uint _gigId) {\n        require (gigs[_gigId].status == Status.registered, \"You can't enroll to this gig.\");\n        _;\n    }\n\n    modifier isFreelancerEnrolled (uint _gigId) {\n        require (isEnrolled(_gigId) == false, \"You're already enrolled to this gig.\");\n        _;\n    }\n\n\n    constructor() {\n        // Need to be initialized for iteration on createGig function\n        gigsCount = 0;\n    }\n\n\n    function createGig (string memory _name, uint8 _freelancersNumber)\n        public\n        payable\n        returns (bool)\n    {\n\n        require(\n            msg.value >= minimumCompensation,\n            \"Below the required minimum compensation.\"\n        );\n        require(\n            _freelancersNumber >= 1,\n            \"Below the required minimum freelancersNumber.\"\n        );\n        gigsCount += 1;\n        // Adding Gig to gigs mapping\n        gigs[gigsCount] = Gig({\n            name: _name,\n            compensation: msg.value,\n            status: Status.registered,\n            owner: msg.sender,\n            freelancersNumber: _freelancersNumber,\n            enrolled: 0,\n            works: 0,\n            awardedTo: address(0)\n        });\n        emit LogGigStatusChange(gigsCount, gigs[gigsCount].status);\n\n        return true;\n    }\n\n    function enroll (uint _gigId)\n        public\n        payable\n        isNotOwner(gigs[_gigId].owner)\n        isStatusRegistered(_gigId)\n        isFreelancerEnrolled(_gigId)\n        returns (address)\n    {\n\n        // Push Freelancer address to enrolledFreelancers mapping Array\n        enrolledFreelancers[_gigId].push(msg.sender);\n        gigs[_gigId].enrolled += 1;\n        // Update status when desired Freelancers number is reached\n        if (enrolledFreelancers[_gigId].length == gigs[_gigId].freelancersNumber) {\n            gigs[_gigId].status = Status.open;\n            emit LogGigStatusChange(_gigId, gigs[_gigId].status);\n        }\n        emit LogEnrolled(_gigId);\n\n        return msg.sender;\n\n    }\n\n    function isEnrolled (uint _gigId)\n        public\n        view\n        isNotOwner(gigs[_gigId].owner)\n        returns (bool)\n    {\n\n        bool enrolled = false;\n        // Loop through enrolledFreelancers mapping Array\n        for (uint i = 0; i < enrolledFreelancers[_gigId].length; i++) {\n            // If sender is in Array\n            if (enrolledFreelancers[_gigId][i] == msg.sender && !enrolled) {\n                enrolled = true;\n            }\n        }\n\n        return enrolled;\n\n    }\n\n    function hasAlreadySubmitToGig (uint _gigId)\n        private\n        view\n        isNotOwner(gigs[_gigId].owner)\n        returns (bool)\n    {\n\n        bool submitted = false;\n        // Loop through worksByGig mapping Array\n        for (uint i = 0; i < worksByGig[_gigId].length; i++) {\n            // If sender is in Array\n            if (worksByGig[_gigId][i].owner == msg.sender && !submitted) {\n                submitted = true;\n            }\n        }\n\n        return submitted;\n\n    }\n\n    // @TODO: _contractAddress should be a valid\n    // deployed contract (testnet), with sender address as owner\n    function submitWork (uint _gigId, address _contractAddress)\n        public\n        isNotOwner(gigs[_gigId].owner)\n        returns (bool)\n    {\n\n        require(\n            gigs[_gigId].status == Status.open,\n            \"Gig status is not valid.\"\n        );\n        require (\n            isEnrolled(_gigId) == true,\n            \"You're not enrolled to this gig.\"\n        );\n        require (\n            hasAlreadySubmitToGig(_gigId) == false,\n            \"You've already submit your work to this gig.\"\n        );\n        // Store work in local memory\n        Work memory work = Work({\n            gigId: _gigId,\n            owner: msg.sender,\n            contractAddress: _contractAddress,\n            valid: true\n        });\n        // Push work in worksByGig mapping Array\n        worksByGig[_gigId].push(work);\n        // Push work in worksByFreelancer mapping Array\n        worksByFreelancer[msg.sender].push(work);\n        // Update gig works variable\n        gigs[_gigId].works += 1;\n        // If submitted work number == required number of Freelancers, status change\n        if (worksByGig[_gigId].length == gigs[_gigId].freelancersNumber) {\n            gigs[_gigId].status = Status.review;\n            emit LogGigStatusChange(_gigId, gigs[_gigId].status);\n        }\n        emit LogWorkSubmitted(_gigId);\n\n        return true;\n\n    }\n\n    function awardTo (uint _gigId, address _awardedFreelancer)\n        public\n        isOwner(gigs[_gigId].owner)\n        returns (address)\n    {\n\n        require(\n            gigs[_gigId].status == Status.review,\n            \"Gig status is not valid.\"\n        );\n        gigs[_gigId].awardedTo = _awardedFreelancer;\n        gigs[_gigId].status = Status.awarded;\n        emit LogGigStatusChange(_gigId, gigs[_gigId].status);\n        transfer(gigs[_gigId].awardedTo, gigs[_gigId].compensation);\n\n        return _awardedFreelancer;\n\n    }\n    function transfer(address _to, uint _amount) private {\n        (bool success, ) = payable(_to).call{value: _amount}(\"\");\n        require(success, \"Failed to send Ether.\");\n    }\n\n}",
  "sourcePath": "/Users/manu/Blockchain/blockchain-developer-bootcamp-final-project/contracts/SmartGigs.sol",
  "compiler": {
    "name": "solc",
    "version": "0.8.9+commit.e5eed63a.Emscripten.clang"
  },
  "schemaVersion": "3.4.3",
  "updatedAt": "2021-10-13T20:40:20.948Z",
  "networkType": "ethereum",
  "devdoc": {
    "kind": "dev",
    "methods": {},
    "version": 1
  },
  "userdoc": {
    "kind": "user",
    "methods": {},
    "version": 1
  }
}