{
  "contractName": "SmarterContract",
  "abi": [
    {
      "anonymous": false,
      "inputs": [
        {
          "indexed": false,
          "internalType": "uint256",
          "name": "amount",
          "type": "uint256"
        }
      ],
      "name": "Received",
      "type": "event"
    },
    {
      "anonymous": false,
      "inputs": [
        {
          "indexed": true,
          "internalType": "address",
          "name": "client",
          "type": "address"
        },
        {
          "indexed": true,
          "internalType": "address",
          "name": "provider",
          "type": "address"
        },
        {
          "indexed": false,
          "internalType": "uint256[]",
          "name": "milestones",
          "type": "uint256[]"
        }
      ],
      "name": "Register",
      "type": "event"
    },
    {
      "anonymous": false,
      "inputs": [
        {
          "indexed": false,
          "internalType": "uint256",
          "name": "milestone",
          "type": "uint256"
        },
        {
          "indexed": false,
          "internalType": "uint256",
          "name": "amount",
          "type": "uint256"
        }
      ],
      "name": "Release",
      "type": "event"
    },
    {
      "inputs": [],
      "name": "client",
      "outputs": [
        {
          "internalType": "address",
          "name": "",
          "type": "address"
        }
      ],
      "stateMutability": "view",
      "type": "function",
      "constant": true
    },
    {
      "inputs": [],
      "name": "currentMilestone",
      "outputs": [
        {
          "internalType": "uint256",
          "name": "",
          "type": "uint256"
        }
      ],
      "stateMutability": "view",
      "type": "function",
      "constant": true
    },
    {
      "inputs": [],
      "name": "locked",
      "outputs": [
        {
          "internalType": "bool",
          "name": "",
          "type": "bool"
        }
      ],
      "stateMutability": "view",
      "type": "function",
      "constant": true
    },
    {
      "inputs": [
        {
          "internalType": "uint256",
          "name": "",
          "type": "uint256"
        }
      ],
      "name": "milestones",
      "outputs": [
        {
          "internalType": "uint256",
          "name": "",
          "type": "uint256"
        }
      ],
      "stateMutability": "view",
      "type": "function",
      "constant": true
    },
    {
      "inputs": [],
      "name": "provider",
      "outputs": [
        {
          "internalType": "address",
          "name": "",
          "type": "address"
        }
      ],
      "stateMutability": "view",
      "type": "function",
      "constant": true
    },
    {
      "inputs": [],
      "name": "total",
      "outputs": [
        {
          "internalType": "uint256",
          "name": "",
          "type": "uint256"
        }
      ],
      "stateMutability": "view",
      "type": "function",
      "constant": true
    },
    {
      "stateMutability": "payable",
      "type": "receive",
      "payable": true
    },
    {
      "inputs": [
        {
          "internalType": "address",
          "name": "_client",
          "type": "address"
        },
        {
          "internalType": "address",
          "name": "_provider",
          "type": "address"
        },
        {
          "internalType": "uint256[]",
          "name": "_milestones",
          "type": "uint256[]"
        }
      ],
      "name": "init",
      "outputs": [],
      "stateMutability": "nonpayable",
      "type": "function"
    },
    {
      "inputs": [],
      "name": "milestonesListLength",
      "outputs": [
        {
          "internalType": "uint256",
          "name": "",
          "type": "uint256"
        }
      ],
      "stateMutability": "view",
      "type": "function",
      "constant": true
    },
    {
      "inputs": [
        {
          "internalType": "uint256",
          "name": "_milestone",
          "type": "uint256"
        }
      ],
      "name": "release",
      "outputs": [],
      "stateMutability": "nonpayable",
      "type": "function"
    }
  ],
  "bytecode": "0x60806040526000600455600060055534801561001a57600080fd5b50600180819055506116af806100316000396000f3fe60806040526004361061008a5760003560e01c806344b776801161005957806344b77680146102a4578063b0304813146102cd578063cf309012146102f8578063e89e4ed614610323578063f55864e014610360576101f5565b8063085d4883146101fa578063109e94cf146102255780632ddbd13a1461025057806337bdc99b1461027b576101f5565b366101f557600260009054906101000a900460ff16156100df576040517f08c379a00000000000000000000000000000000000000000000000000000000081526004016100d690610c53565b60405180910390fd5b6100e761038b565b600260019054906101000a900473ffffffffffffffffffffffffffffffffffffffff1673ffffffffffffffffffffffffffffffffffffffff168173ffffffffffffffffffffffffffffffffffffffff1614610177576040517f08c379a000000000000000000000000000000000000000000000000000000000815260040161016e90610cbf565b60405180910390fd5b60045434146101bb576040517f08c379a00000000000000000000000000000000000000000000000000000000081526004016101b290610d51565b60405180910390fd5b7fa8142743f8f70a4c26f3691cf4ed59718381fb2f18070ec52be1f1022d855557346040516101ea9190610d8a565b60405180910390a150005b600080fd5b34801561020657600080fd5b5061020f610393565b60405161021c9190610de6565b60405180910390f35b34801561023157600080fd5b5061023a6103b9565b6040516102479190610de6565b60405180910390f35b34801561025c57600080fd5b506102656103df565b6040516102729190610d8a565b60405180910390f35b34801561028757600080fd5b506102a2600480360381019061029d9190610e37565b6103e5565b005b3480156102b057600080fd5b506102cb60048036038101906102c69190610ef5565b610661565b005b3480156102d957600080fd5b506102e261096e565b6040516102ef9190610d8a565b60405180910390f35b34801561030457600080fd5b5061030d610974565b60405161031a9190610f84565b60405180910390f35b34801561032f57600080fd5b5061034a60048036038101906103459190610e37565b610987565b6040516103579190610d8a565b60405180910390f35b34801561036c57600080fd5b506103756109ab565b6040516103829190610d8a565b60405180910390f35b600033905090565b600360009054906101000a900473ffffffffffffffffffffffffffffffffffffffff1681565b600260019054906101000a900473ffffffffffffffffffffffffffffffffffffffff1681565b60045481565b6002600154141561042b576040517f08c379a000000000000000000000000000000000000000000000000000000000815260040161042290610feb565b60405180910390fd5b6002600181905550600260009054906101000a900460ff1615610483576040517f08c379a000000000000000000000000000000000000000000000000000000000815260040161047a90610c53565b60405180910390fd5b61048b61038b565b600260019054906101000a900473ffffffffffffffffffffffffffffffffffffffff1673ffffffffffffffffffffffffffffffffffffffff168173ffffffffffffffffffffffffffffffffffffffff161461051b576040517f08c379a000000000000000000000000000000000000000000000000000000000815260040161051290610cbf565b60405180910390fd5b6000471161055e576040517f08c379a00000000000000000000000000000000000000000000000000000000081526004016105559061107d565b60405180910390fd5b60055482146105a2576040517f08c379a00000000000000000000000000000000000000000000000000000000081526004016105999061110f565b60405180910390fd5b6001826105af919061115e565b6005819055507f99f6215451102cb496830dfd718a41ae7fb7d92607137ea8961d076bea55c5d382600684815481106105eb576105ea6111b4565b5b90600052602060002001546040516106049291906111e3565b60405180910390a1610656600360009054906101000a900473ffffffffffffffffffffffffffffffffffffffff1660068481548110610646576106456111b4565b5b90600052602060002001546109b8565b506001808190555050565b600060019054906101000a900460ff1680610687575060008054906101000a900460ff16155b6106c6576040517f08c379a00000000000000000000000000000000000000000000000000000000081526004016106bd9061127e565b60405180910390fd5b60008060019054906101000a900460ff161590508015610716576001600060016101000a81548160ff02191690831515021790555060016000806101000a81548160ff0219169083151502179055505b600073ffffffffffffffffffffffffffffffffffffffff168573ffffffffffffffffffffffffffffffffffffffff161415610786576040517f08c379a000000000000000000000000000000000000000000000000000000000815260040161077d906112ea565b60405180910390fd5b600073ffffffffffffffffffffffffffffffffffffffff168473ffffffffffffffffffffffffffffffffffffffff1614156107f6576040517f08c379a00000000000000000000000000000000000000000000000000000000081526004016107ed90611356565b60405180910390fd5b84600260016101000a81548173ffffffffffffffffffffffffffffffffffffffff021916908373ffffffffffffffffffffffffffffffffffffffff16021790555083600360006101000a81548173ffffffffffffffffffffffffffffffffffffffff021916908373ffffffffffffffffffffffffffffffffffffffff160217905550828260069190610889929190610b8c565b5060005b6006805490508110156108df57600681815481106108ae576108ad6111b4565b5b90600052602060002001546004546108c6919061115e565b60048190555080806108d790611376565b91505061088d565b508373ffffffffffffffffffffffffffffffffffffffff168573ffffffffffffffffffffffffffffffffffffffff167f43e5ba57af2a3f1229a242de4441239d77270342ff0fae068bdd64676b0ffd1f600660405161093e91906114cd565b60405180910390a380156109675760008060016101000a81548160ff0219169083151502179055505b5050505050565b60055481565b600260009054906101000a900460ff1681565b6006818154811061099757600080fd5b906000526020600020016000915090505481565b6000600680549050905090565b600260009054906101000a900460ff1615610a08576040517f08c379a00000000000000000000000000000000000000000000000000000000081526004016109ff90610c53565b60405180910390fd5b600360009054906101000a900473ffffffffffffffffffffffffffffffffffffffff1673ffffffffffffffffffffffffffffffffffffffff168273ffffffffffffffffffffffffffffffffffffffff1614610a98576040517f08c379a0000000000000000000000000000000000000000000000000000000008152600401610a8f9061153b565b60405180910390fd5b80471015610adb576040517f08c379a0000000000000000000000000000000000000000000000000000000008152600401610ad2906115a7565b60405180910390fd5b60008273ffffffffffffffffffffffffffffffffffffffff1682604051610b01906115f8565b60006040518083038185875af1925050503d8060008114610b3e576040519150601f19603f3d011682016040523d82523d6000602084013e610b43565b606091505b5050905080610b87576040517f08c379a0000000000000000000000000000000000000000000000000000000008152600401610b7e90611659565b60405180910390fd5b505050565b828054828255906000526020600020908101928215610bc8579160200282015b82811115610bc7578235825591602001919060010190610bac565b5b509050610bd59190610bd9565b5090565b5b80821115610bf2576000816000905550600101610bda565b5090565b600082825260208201905092915050565b7f436f6e7472616374206973206c6f636b65640000000000000000000000000000600082015250565b6000610c3d601283610bf6565b9150610c4882610c07565b602082019050919050565b60006020820190508181036000830152610c6c81610c30565b9050919050565b7f596f7520617265206e6f7420636f6e747261637420436c69656e740000000000600082015250565b6000610ca9601b83610bf6565b9150610cb482610c73565b602082019050919050565b60006020820190508181036000830152610cd881610c9c565b9050919050565b7f4465706f7369742073686f756c6420626520746f74616c20636f6e747261637460008201527f20616d6f756e7400000000000000000000000000000000000000000000000000602082015250565b6000610d3b602783610bf6565b9150610d4682610cdf565b604082019050919050565b60006020820190508181036000830152610d6a81610d2e565b9050919050565b6000819050919050565b610d8481610d71565b82525050565b6000602082019050610d9f6000830184610d7b565b92915050565b600073ffffffffffffffffffffffffffffffffffffffff82169050919050565b6000610dd082610da5565b9050919050565b610de081610dc5565b82525050565b6000602082019050610dfb6000830184610dd7565b92915050565b600080fd5b600080fd5b610e1481610d71565b8114610e1f57600080fd5b50565b600081359050610e3181610e0b565b92915050565b600060208284031215610e4d57610e4c610e01565b5b6000610e5b84828501610e22565b91505092915050565b610e6d81610dc5565b8114610e7857600080fd5b50565b600081359050610e8a81610e64565b92915050565b600080fd5b600080fd5b600080fd5b60008083601f840112610eb557610eb4610e90565b5b8235905067ffffffffffffffff811115610ed257610ed1610e95565b5b602083019150836020820283011115610eee57610eed610e9a565b5b9250929050565b60008060008060608587031215610f0f57610f0e610e01565b5b6000610f1d87828801610e7b565b9450506020610f2e87828801610e7b565b935050604085013567ffffffffffffffff811115610f4f57610f4e610e06565b5b610f5b87828801610e9f565b925092505092959194509250565b60008115159050919050565b610f7e81610f69565b82525050565b6000602082019050610f996000830184610f75565b92915050565b7f5265656e7472616e637947756172643a207265656e7472616e742063616c6c00600082015250565b6000610fd5601f83610bf6565b9150610fe082610f9f565b602082019050919050565b6000602082019050818103600083015261100481610fc8565b9050919050565b7f43616e27742072656c6561736520616e79206d696c6573746f6e652e2048617660008201527f6520796f75206465706f7369742066756e64733f000000000000000000000000602082015250565b6000611067603483610bf6565b91506110728261100b565b604082019050919050565b600060208201905081810360008301526110968161105a565b9050919050565b7f496e76616c6964206d696c6573746f6e653a2074686973206973206e6f74207460008201527f68652063757272656e74206d696c6573746f6e6520746f2072656c6561736500602082015250565b60006110f9603f83610bf6565b91506111048261109d565b604082019050919050565b60006020820190508181036000830152611128816110ec565b9050919050565b7f4e487b7100000000000000000000000000000000000000000000000000000000600052601160045260246000fd5b600061116982610d71565b915061117483610d71565b9250827fffffffffffffffffffffffffffffffffffffffffffffffffffffffffffffffff038211156111a9576111a861112f565b5b828201905092915050565b7f4e487b7100000000000000000000000000000000000000000000000000000000600052603260045260246000fd5b60006040820190506111f86000830185610d7b565b6112056020830184610d7b565b9392505050565b7f496e697469616c697a61626c653a20636f6e747261637420697320616c72656160008201527f647920696e697469616c697a6564000000000000000000000000000000000000602082015250565b6000611268602e83610bf6565b91506112738261120c565b604082019050919050565b600060208201905081810360008301526112978161125b565b9050919050565b7f436c69656e74206164647265737320697320696e76616c696400000000000000600082015250565b60006112d4601983610bf6565b91506112df8261129e565b602082019050919050565b60006020820190508181036000830152611303816112c7565b9050919050565b7f50726f7669646572206164647265737320697320696e76616c69640000000000600082015250565b6000611340601b83610bf6565b915061134b8261130a565b602082019050919050565b6000602082019050818103600083015261136f81611333565b9050919050565b600061138182610d71565b91507fffffffffffffffffffffffffffffffffffffffffffffffffffffffffffffffff8214156113b4576113b361112f565b5b600182019050919050565b600081549050919050565b600082825260208201905092915050565b60008190508160005260206000209050919050565b6113f981610d71565b82525050565b600061140b83836113f0565b60208301905092915050565b60008160001c9050919050565b6000819050919050565b600061144161143c83611417565b611424565b9050919050565b6000611454825461142e565b9050919050565b6000600182019050919050565b6000611473826113bf565b61147d81856113ca565b9350611488836113db565b8060005b838110156114c05761149d82611448565b6114a788826113ff565b97506114b28361145b565b92505060018101905061148c565b5085935050505092915050565b600060208201905081810360008301526114e78184611468565b905092915050565b7f5472616e73666572206164647265737320697320696e76616c69640000000000600082015250565b6000611525601b83610bf6565b9150611530826114ef565b602082019050919050565b6000602082019050818103600083015261155481611518565b9050919050565b7f496e73756666696369656e7420636f6e74726163742062616c616e6365000000600082015250565b6000611591601d83610bf6565b915061159c8261155b565b602082019050919050565b600060208201905081810360008301526115c081611584565b9050919050565b600081905092915050565b50565b60006115e26000836115c7565b91506115ed826115d2565b600082019050919050565b6000611603826115d5565b9150819050919050565b7f4661696c656420746f207472616e736665720000000000000000000000000000600082015250565b6000611643601283610bf6565b915061164e8261160d565b602082019050919050565b6000602082019050818103600083015261167281611636565b905091905056fea26469706673582212208cf1cd15c83c2336389dcf56a5220a803a5a2ac7e39abdb574d301c3c3a0004a64736f6c63430008090033",
  "immutableReferences": {},
  "source": "// SPDX-License-Identifier: MIT\npragma solidity >=0.8.9 <0.9.0;\n\nimport \"@openzeppelin/contracts/security/ReentrancyGuard.sol\";\nimport \"@openzeppelin/contracts/utils/Context.sol\";\nimport \"@openzeppelin/contracts/proxy/utils/Initializable.sol\";\nimport \"./interfaces/ISmarterContract.sol\";\n\n/// @title SmarterContract - a Blockchain implementation for contracting and milestones payment\n/// @author Manuel Kirstetter\n/// @notice Use for testing purpose only, no guarantee\n/// @custom:experimental This is an experimental contract.\ncontract SmarterContract is ISmarterContract, Initializable, Context, ReentrancyGuard {\n    /// @notice contract locked state\n    /// @return returns contract locked state\n    bool public locked;\n\n    /// @notice contract client address\n    /// @return returns contract client address\n    address public client;\n\n    /// @notice contract provider address\n    /// @return returns contract provider address\n    address public provider;\n\n    /// @notice total contract value\n    /// @return returns total contract value\n    uint256 public total = 0;\n\n    /// @notice contract current milestone\n    /// @return returns contract current milestone\n    uint256 public currentMilestone = 0;\n\n    /// @notice contract milestones\n    /// @return returns contract milestone of id/index\n    uint256[] public milestones;\n\n    /// @notice event fired at contract creation\n    /// @param client contract client\n    /// @param provider contract provider\n    /// @param milestones array of all contract milestones\n    /// @dev client & provider are indexed in topics\n    event Register(\n        address indexed client,\n        address indexed provider,\n        uint256[] milestones\n    );\n\n    /// @notice event fired at fund deposit\n    /// @param amount deposit amount\n    event Received(uint256 amount);\n\n    /// @notice event fired at milestone release/fund transfer\n    /// @param milestone milestone id/index\n    /// @param amount amount transferred\n    event Release(uint256 milestone, uint256 amount);\n\n    modifier isNotLocked () {\n        require (!locked, \"Contract is locked\");\n        _;\n    }\n\n    modifier isClient (address _address) {\n        require (_address == client, \"You are not contract Client\");\n        _;\n    }\n\n    modifier isReleasable () {\n        require (address(this).balance > 0, \"Can't release any milestone. Have you deposit funds?\");\n        _;\n    }\n\n    /// @notice initialize a new contract with provided params\n    /// @param _client client address\n    /// @param _provider provider address\n    /// @param _milestones array of milestone amounts\n    /// @dev this function has the role of constructor here - factory pattern\n    /// @dev this function initializes contract - see CWE-665\n    function init(\n        address _client,\n        address _provider,\n        uint256[] calldata _milestones\n    ) external override initializer {\n        require(_client != address(0), \"Client address is invalid\");\n        require(_provider != address(0), \"Provider address is invalid\");\n\n        client = _client;\n        provider = _provider;\n        milestones = _milestones;\n        for (uint256 i = 0; i < milestones.length; i++) {\n            total = total + milestones[i];\n        }\n\n        emit Register(_client, _provider, milestones);\n    }\n\n    /// @notice to get number of milestones\n    /// @return returns the milestones array length\n    function milestonesListLength() external view returns (uint256) {\n        return milestones.length;\n    }\n\n    /// @notice releases milestone and transfer milestone associated fund\n    /// @param _milestone milestone id/index to release\n    /// @dev reentrancy protection modifier - see SWC-107\n    function release(uint256 _milestone) external nonReentrant isNotLocked isClient(_msgSender()) isReleasable {\n        require(_milestone == currentMilestone, \"Invalid milestone: this is not the current milestone to release\");\n\n        currentMilestone = _milestone + 1;\n\n        emit Release(_milestone, milestones[_milestone]);\n\n        _transfer(provider, milestones[_milestone]);\n    }\n\n    /// @notice transfer funds to address\n    /// @param _to address to transfer funds\n    /// @param _amount amount to be transferred\n    /// @dev using up-to-date way to transfer funds, without gas limit and with access control - see SWC-134 & SWC-105\n    function _transfer(address _to, uint _amount) private isNotLocked {\n        require(_to == provider, \"Transfer address is invalid\");\n        require(address(this).balance >= _amount, \"Insufficient contract balance\");\n\n        (bool success, ) = payable(_to).call{value: _amount}(\"\");\n        require(success, \"Failed to transfer\");\n    }\n\n    /// @notice deposit funds to contract\n    receive() external payable isNotLocked isClient(_msgSender()) {\n        require(msg.value == total, 'Deposit should be total contract amount');\n        emit Received(msg.value);\n    }\n}",
  "sourcePath": "/Users/manu/Blockchain/blockchain-developer-bootcamp-final-project/contracts/SmarterContract.sol",
  "compiler": {
    "name": "solc",
    "version": "0.8.9+commit.e5eed63a.Emscripten.clang"
  },
  "schemaVersion": "3.4.3",
  "updatedAt": "2021-11-24T13:42:16.885Z",
  "networkType": "ethereum",
  "devdoc": {
    "author": "Manuel Kirstetter",
    "custom:experimental": "This is an experimental contract.",
    "events": {
      "Received(uint256)": {
        "params": {
          "amount": "deposit amount"
        }
      },
      "Register(address,address,uint256[])": {
        "details": "client & provider are indexed in topics",
        "params": {
          "client": "contract client",
          "milestones": "array of all contract milestones",
          "provider": "contract provider"
        }
      },
      "Release(uint256,uint256)": {
        "params": {
          "amount": "amount transferred",
          "milestone": "milestone id/index"
        }
      }
    },
    "kind": "dev",
    "methods": {
      "init(address,address,uint256[])": {
        "details": "this function has the role of constructor here - factory patternthis function initializes contract - see CWE-665",
        "params": {
          "_client": "client address",
          "_milestones": "array of milestone amounts",
          "_provider": "provider address"
        }
      },
      "milestonesListLength()": {
        "returns": {
          "_0": "returns the milestones array length"
        }
      },
      "release(uint256)": {
        "details": "reentrancy protection modifier - see SWC-107",
        "params": {
          "_milestone": "milestone id/index to release"
        }
      }
    },
    "stateVariables": {
      "client": {
        "return": "returns contract client address",
        "returns": {
          "_0": "returns contract client address"
        }
      },
      "currentMilestone": {
        "return": "returns contract current milestone",
        "returns": {
          "_0": "returns contract current milestone"
        }
      },
      "locked": {
        "return": "returns contract locked state",
        "returns": {
          "_0": "returns contract locked state"
        }
      },
      "milestones": {
        "return": "returns contract milestone of id/index",
        "returns": {
          "_0": "returns contract milestone of id/index"
        }
      },
      "provider": {
        "return": "returns contract provider address",
        "returns": {
          "_0": "returns contract provider address"
        }
      },
      "total": {
        "return": "returns total contract value",
        "returns": {
          "_0": "returns total contract value"
        }
      }
    },
    "title": "SmarterContract - a Blockchain implementation for contracting and milestones payment",
    "version": 1
  },
  "userdoc": {
    "events": {
      "Received(uint256)": {
        "notice": "event fired at fund deposit"
      },
      "Register(address,address,uint256[])": {
        "notice": "event fired at contract creation"
      },
      "Release(uint256,uint256)": {
        "notice": "event fired at milestone release/fund transfer"
      }
    },
    "kind": "user",
    "methods": {
      "client()": {
        "notice": "contract client address"
      },
      "currentMilestone()": {
        "notice": "contract current milestone"
      },
      "init(address,address,uint256[])": {
        "notice": "initialize a new contract with provided params"
      },
      "locked()": {
        "notice": "contract locked state"
      },
      "milestones(uint256)": {
        "notice": "contract milestones"
      },
      "milestonesListLength()": {
        "notice": "to get number of milestones"
      },
      "provider()": {
        "notice": "contract provider address"
      },
      "release(uint256)": {
        "notice": "releases milestone and transfer milestone associated fund"
      },
      "total()": {
        "notice": "total contract value"
      }
    },
    "notice": "Use for testing purpose only, no guarantee",
    "version": 1
  }
}