{
  "contractName": "SmarterContract",
  "abi": [
    {
      "anonymous": false,
      "inputs": [
        {
          "indexed": false,
          "internalType": "uint256",
          "name": "amount",
          "type": "uint256"
        }
      ],
      "name": "Received",
      "type": "event"
    },
    {
      "anonymous": false,
      "inputs": [
        {
          "indexed": true,
          "internalType": "string",
          "name": "externalId",
          "type": "string"
        },
        {
          "indexed": true,
          "internalType": "address",
          "name": "client",
          "type": "address"
        },
        {
          "indexed": true,
          "internalType": "address",
          "name": "provider",
          "type": "address"
        },
        {
          "indexed": false,
          "internalType": "uint256[]",
          "name": "milestones",
          "type": "uint256[]"
        }
      ],
      "name": "Register",
      "type": "event"
    },
    {
      "anonymous": false,
      "inputs": [
        {
          "indexed": false,
          "internalType": "uint256",
          "name": "milestone",
          "type": "uint256"
        },
        {
          "indexed": false,
          "internalType": "uint256",
          "name": "amount",
          "type": "uint256"
        }
      ],
      "name": "Release",
      "type": "event"
    },
    {
      "inputs": [],
      "name": "client",
      "outputs": [
        {
          "internalType": "address",
          "name": "",
          "type": "address"
        }
      ],
      "stateMutability": "view",
      "type": "function"
    },
    {
      "inputs": [],
      "name": "currentMilestone",
      "outputs": [
        {
          "internalType": "uint256",
          "name": "",
          "type": "uint256"
        }
      ],
      "stateMutability": "view",
      "type": "function"
    },
    {
      "inputs": [],
      "name": "externalId",
      "outputs": [
        {
          "internalType": "string",
          "name": "",
          "type": "string"
        }
      ],
      "stateMutability": "view",
      "type": "function"
    },
    {
      "inputs": [],
      "name": "locked",
      "outputs": [
        {
          "internalType": "bool",
          "name": "",
          "type": "bool"
        }
      ],
      "stateMutability": "view",
      "type": "function"
    },
    {
      "inputs": [
        {
          "internalType": "uint256",
          "name": "",
          "type": "uint256"
        }
      ],
      "name": "milestones",
      "outputs": [
        {
          "internalType": "uint256",
          "name": "",
          "type": "uint256"
        }
      ],
      "stateMutability": "view",
      "type": "function"
    },
    {
      "inputs": [],
      "name": "provider",
      "outputs": [
        {
          "internalType": "address",
          "name": "",
          "type": "address"
        }
      ],
      "stateMutability": "view",
      "type": "function"
    },
    {
      "inputs": [],
      "name": "total",
      "outputs": [
        {
          "internalType": "uint256",
          "name": "",
          "type": "uint256"
        }
      ],
      "stateMutability": "view",
      "type": "function"
    },
    {
      "stateMutability": "payable",
      "type": "receive"
    },
    {
      "inputs": [
        {
          "internalType": "string",
          "name": "_externalId",
          "type": "string"
        },
        {
          "internalType": "address",
          "name": "_client",
          "type": "address"
        },
        {
          "internalType": "address",
          "name": "_provider",
          "type": "address"
        },
        {
          "internalType": "uint256[]",
          "name": "_milestones",
          "type": "uint256[]"
        }
      ],
      "name": "init",
      "outputs": [],
      "stateMutability": "nonpayable",
      "type": "function"
    },
    {
      "inputs": [],
      "name": "milestonesListLength",
      "outputs": [
        {
          "internalType": "uint256",
          "name": "",
          "type": "uint256"
        }
      ],
      "stateMutability": "view",
      "type": "function"
    },
    {
      "inputs": [
        {
          "internalType": "uint256",
          "name": "_milestone",
          "type": "uint256"
        }
      ],
      "name": "release",
      "outputs": [],
      "stateMutability": "nonpayable",
      "type": "function"
    }
  ],
  "bytecode": "0x60806040526000600655600060075534801561001a57600080fd5b5060018081905550611a11806100316000396000f3fe6080604052600436106100955760003560e01c8063b030481311610059578063b0304813146102d8578063cf30901214610303578063e89e4ed61461032e578063f55864e01461036b578063f94b93c91461039657610200565b8063085d488314610205578063109e94cf14610230578063150ed0df1461025b5780632ddbd13a1461028457806337bdc99b146102af57610200565b3661020057600260009054906101000a900460ff16156100ea576040517f08c379a00000000000000000000000000000000000000000000000000000000081526004016100e190610dc9565b60405180910390fd5b6100f26103c1565b600460009054906101000a900473ffffffffffffffffffffffffffffffffffffffff1673ffffffffffffffffffffffffffffffffffffffff168173ffffffffffffffffffffffffffffffffffffffff1614610182576040517f08c379a000000000000000000000000000000000000000000000000000000000815260040161017990610e35565b60405180910390fd5b60065434146101c6576040517f08c379a00000000000000000000000000000000000000000000000000000000081526004016101bd90610ec7565b60405180910390fd5b7fa8142743f8f70a4c26f3691cf4ed59718381fb2f18070ec52be1f1022d855557346040516101f59190610f00565b60405180910390a150005b600080fd5b34801561021157600080fd5b5061021a6103c9565b6040516102279190610f5c565b60405180910390f35b34801561023c57600080fd5b506102456103ef565b6040516102529190610f5c565b60405180910390f35b34801561026757600080fd5b50610282600480360381019061027d9190611068565b610415565b005b34801561029057600080fd5b5061029961074e565b6040516102a69190610f00565b60405180910390f35b3480156102bb57600080fd5b506102d660048036038101906102d1919061113b565b610754565b005b3480156102e457600080fd5b506102ed6109d0565b6040516102fa9190610f00565b60405180910390f35b34801561030f57600080fd5b506103186109d6565b6040516103259190611183565b60405180910390f35b34801561033a57600080fd5b506103556004803603810190610350919061113b565b6109e9565b6040516103629190610f00565b60405180910390f35b34801561037757600080fd5b50610380610a0d565b60405161038d9190610f00565b60405180910390f35b3480156103a257600080fd5b506103ab610a1a565b6040516103b89190611226565b60405180910390f35b600033905090565b600560009054906101000a900473ffffffffffffffffffffffffffffffffffffffff1681565b600460009054906101000a900473ffffffffffffffffffffffffffffffffffffffff1681565b600060019054906101000a900460ff168061043b575060008054906101000a900460ff16155b61047a576040517f08c379a0000000000000000000000000000000000000000000000000000000008152600401610471906112ba565b60405180910390fd5b60008060019054906101000a900460ff1615905080156104ca576001600060016101000a81548160ff02191690831515021790555060016000806101000a81548160ff0219169083151502179055505b600073ffffffffffffffffffffffffffffffffffffffff168573ffffffffffffffffffffffffffffffffffffffff16141561053a576040517f08c379a000000000000000000000000000000000000000000000000000000000815260040161053190611326565b60405180910390fd5b600073ffffffffffffffffffffffffffffffffffffffff168473ffffffffffffffffffffffffffffffffffffffff1614156105aa576040517f08c379a00000000000000000000000000000000000000000000000000000000081526004016105a190611392565b60405180910390fd5b8686600391906105bb929190610c7c565b5084600460006101000a81548173ffffffffffffffffffffffffffffffffffffffff021916908373ffffffffffffffffffffffffffffffffffffffff16021790555083600560006101000a81548173ffffffffffffffffffffffffffffffffffffffff021916908373ffffffffffffffffffffffffffffffffffffffff16021790555082826008919061064f929190610d02565b5060005b6008805490508110156106a55760088181548110610674576106736113b2565b5b906000526020600020015460065461068c9190611410565b600681905550808061069d90611466565b915050610653565b508373ffffffffffffffffffffffffffffffffffffffff168573ffffffffffffffffffffffffffffffffffffffff1688886040516106e49291906114ee565b60405180910390207f41212d48352c8c25d00dc787bab5c8b4e13dd489f47c70cca61d159f4eb957df600860405161071c9190611615565b60405180910390a480156107455760008060016101000a81548160ff0219169083151502179055505b50505050505050565b60065481565b6002600154141561079a576040517f08c379a000000000000000000000000000000000000000000000000000000000815260040161079190611683565b60405180910390fd5b6002600181905550600260009054906101000a900460ff16156107f2576040517f08c379a00000000000000000000000000000000000000000000000000000000081526004016107e990610dc9565b60405180910390fd5b6107fa6103c1565b600460009054906101000a900473ffffffffffffffffffffffffffffffffffffffff1673ffffffffffffffffffffffffffffffffffffffff168173ffffffffffffffffffffffffffffffffffffffff161461088a576040517f08c379a000000000000000000000000000000000000000000000000000000000815260040161088190610e35565b60405180910390fd5b600047116108cd576040517f08c379a00000000000000000000000000000000000000000000000000000000081526004016108c490611715565b60405180910390fd5b6007548214610911576040517f08c379a0000000000000000000000000000000000000000000000000000000008152600401610908906117a7565b60405180910390fd5b60018261091e9190611410565b6007819055507f99f6215451102cb496830dfd718a41ae7fb7d92607137ea8961d076bea55c5d3826008848154811061095a576109596113b2565b5b90600052602060002001546040516109739291906117c7565b60405180910390a16109c5600560009054906101000a900473ffffffffffffffffffffffffffffffffffffffff16600884815481106109b5576109b46113b2565b5b9060005260206000200154610aa8565b506001808190555050565b60075481565b600260009054906101000a900460ff1681565b600881815481106109f957600080fd5b906000526020600020016000915090505481565b6000600880549050905090565b60038054610a279061181f565b80601f0160208091040260200160405190810160405280929190818152602001828054610a539061181f565b8015610aa05780601f10610a7557610100808354040283529160200191610aa0565b820191906000526020600020905b815481529060010190602001808311610a8357829003601f168201915b505050505081565b600260009054906101000a900460ff1615610af8576040517f08c379a0000000000000000000000000000000000000000000000000000000008152600401610aef90610dc9565b60405180910390fd5b600560009054906101000a900473ffffffffffffffffffffffffffffffffffffffff1673ffffffffffffffffffffffffffffffffffffffff168273ffffffffffffffffffffffffffffffffffffffff1614610b88576040517f08c379a0000000000000000000000000000000000000000000000000000000008152600401610b7f9061189d565b60405180910390fd5b80471015610bcb576040517f08c379a0000000000000000000000000000000000000000000000000000000008152600401610bc290611909565b60405180910390fd5b60008273ffffffffffffffffffffffffffffffffffffffff1682604051610bf19061195a565b60006040518083038185875af1925050503d8060008114610c2e576040519150601f19603f3d011682016040523d82523d6000602084013e610c33565b606091505b5050905080610c77576040517f08c379a0000000000000000000000000000000000000000000000000000000008152600401610c6e906119bb565b60405180910390fd5b505050565b828054610c889061181f565b90600052602060002090601f016020900481019282610caa5760008555610cf1565b82601f10610cc357803560ff1916838001178555610cf1565b82800160010185558215610cf1579182015b82811115610cf0578235825591602001919060010190610cd5565b5b509050610cfe9190610d4f565b5090565b828054828255906000526020600020908101928215610d3e579160200282015b82811115610d3d578235825591602001919060010190610d22565b5b509050610d4b9190610d4f565b5090565b5b80821115610d68576000816000905550600101610d50565b5090565b600082825260208201905092915050565b7f436f6e7472616374206973206c6f636b65640000000000000000000000000000600082015250565b6000610db3601283610d6c565b9150610dbe82610d7d565b602082019050919050565b60006020820190508181036000830152610de281610da6565b9050919050565b7f596f7520617265206e6f7420636f6e747261637420436c69656e740000000000600082015250565b6000610e1f601b83610d6c565b9150610e2a82610de9565b602082019050919050565b60006020820190508181036000830152610e4e81610e12565b9050919050565b7f4465706f7369742073686f756c6420626520746f74616c20636f6e747261637460008201527f20616d6f756e7400000000000000000000000000000000000000000000000000602082015250565b6000610eb1602783610d6c565b9150610ebc82610e55565b604082019050919050565b60006020820190508181036000830152610ee081610ea4565b9050919050565b6000819050919050565b610efa81610ee7565b82525050565b6000602082019050610f156000830184610ef1565b92915050565b600073ffffffffffffffffffffffffffffffffffffffff82169050919050565b6000610f4682610f1b565b9050919050565b610f5681610f3b565b82525050565b6000602082019050610f716000830184610f4d565b92915050565b600080fd5b600080fd5b600080fd5b600080fd5b600080fd5b60008083601f840112610fa657610fa5610f81565b5b8235905067ffffffffffffffff811115610fc357610fc2610f86565b5b602083019150836001820283011115610fdf57610fde610f8b565b5b9250929050565b610fef81610f3b565b8114610ffa57600080fd5b50565b60008135905061100c81610fe6565b92915050565b60008083601f84011261102857611027610f81565b5b8235905067ffffffffffffffff81111561104557611044610f86565b5b60208301915083602082028301111561106157611060610f8b565b5b9250929050565b6000806000806000806080878903121561108557611084610f77565b5b600087013567ffffffffffffffff8111156110a3576110a2610f7c565b5b6110af89828a01610f90565b965096505060206110c289828a01610ffd565b94505060406110d389828a01610ffd565b935050606087013567ffffffffffffffff8111156110f4576110f3610f7c565b5b61110089828a01611012565b92509250509295509295509295565b61111881610ee7565b811461112357600080fd5b50565b6000813590506111358161110f565b92915050565b60006020828403121561115157611150610f77565b5b600061115f84828501611126565b91505092915050565b60008115159050919050565b61117d81611168565b82525050565b60006020820190506111986000830184611174565b92915050565b600081519050919050565b60005b838110156111c75780820151818401526020810190506111ac565b838111156111d6576000848401525b50505050565b6000601f19601f8301169050919050565b60006111f88261119e565b6112028185610d6c565b93506112128185602086016111a9565b61121b816111dc565b840191505092915050565b6000602082019050818103600083015261124081846111ed565b905092915050565b7f496e697469616c697a61626c653a20636f6e747261637420697320616c72656160008201527f647920696e697469616c697a6564000000000000000000000000000000000000602082015250565b60006112a4602e83610d6c565b91506112af82611248565b604082019050919050565b600060208201905081810360008301526112d381611297565b9050919050565b7f436c69656e74206164647265737320697320696e76616c696400000000000000600082015250565b6000611310601983610d6c565b915061131b826112da565b602082019050919050565b6000602082019050818103600083015261133f81611303565b9050919050565b7f50726f7669646572206164647265737320697320696e76616c69640000000000600082015250565b600061137c601b83610d6c565b915061138782611346565b602082019050919050565b600060208201905081810360008301526113ab8161136f565b9050919050565b7f4e487b7100000000000000000000000000000000000000000000000000000000600052603260045260246000fd5b7f4e487b7100000000000000000000000000000000000000000000000000000000600052601160045260246000fd5b600061141b82610ee7565b915061142683610ee7565b9250827fffffffffffffffffffffffffffffffffffffffffffffffffffffffffffffffff0382111561145b5761145a6113e1565b5b828201905092915050565b600061147182610ee7565b91507fffffffffffffffffffffffffffffffffffffffffffffffffffffffffffffffff8214156114a4576114a36113e1565b5b600182019050919050565b600081905092915050565b82818337600083830152505050565b60006114d583856114af565b93506114e28385846114ba565b82840190509392505050565b60006114fb8284866114c9565b91508190509392505050565b600081549050919050565b600082825260208201905092915050565b60008190508160005260206000209050919050565b61154181610ee7565b82525050565b60006115538383611538565b60208301905092915050565b60008160001c9050919050565b6000819050919050565b60006115896115848361155f565b61156c565b9050919050565b600061159c8254611576565b9050919050565b6000600182019050919050565b60006115bb82611507565b6115c58185611512565b93506115d083611523565b8060005b83811015611608576115e582611590565b6115ef8882611547565b97506115fa836115a3565b9250506001810190506115d4565b5085935050505092915050565b6000602082019050818103600083015261162f81846115b0565b905092915050565b7f5265656e7472616e637947756172643a207265656e7472616e742063616c6c00600082015250565b600061166d601f83610d6c565b915061167882611637565b602082019050919050565b6000602082019050818103600083015261169c81611660565b9050919050565b7f43616e27742072656c6561736520616e79206d696c6573746f6e652e2048617660008201527f6520796f75206465706f7369742066756e64733f000000000000000000000000602082015250565b60006116ff603483610d6c565b915061170a826116a3565b604082019050919050565b6000602082019050818103600083015261172e816116f2565b9050919050565b7f496e76616c6964206d696c6573746f6e653a2074686973206973206e6f74207460008201527f68652063757272656e74206d696c6573746f6e6520746f2072656c6561736500602082015250565b6000611791603f83610d6c565b915061179c82611735565b604082019050919050565b600060208201905081810360008301526117c081611784565b9050919050565b60006040820190506117dc6000830185610ef1565b6117e96020830184610ef1565b9392505050565b7f4e487b7100000000000000000000000000000000000000000000000000000000600052602260045260246000fd5b6000600282049050600182168061183757607f821691505b6020821081141561184b5761184a6117f0565b5b50919050565b7f5472616e73666572206164647265737320697320696e76616c69640000000000600082015250565b6000611887601b83610d6c565b915061189282611851565b602082019050919050565b600060208201905081810360008301526118b68161187a565b9050919050565b7f496e73756666696369656e7420636f6e74726163742062616c616e6365000000600082015250565b60006118f3601d83610d6c565b91506118fe826118bd565b602082019050919050565b60006020820190508181036000830152611922816118e6565b9050919050565b600081905092915050565b50565b6000611944600083611929565b915061194f82611934565b600082019050919050565b600061196582611937565b9150819050919050565b7f4661696c656420746f207472616e736665720000000000000000000000000000600082015250565b60006119a5601283610d6c565b91506119b08261196f565b602082019050919050565b600060208201905081810360008301526119d481611998565b905091905056fea264697066735822122087162668c82de6635218ce1a805de13cc3e4ad7c7173455894ccadbe439f30b064736f6c63430008090033",
  "immutableReferences": {},
  "source": "// SPDX-License-Identifier: MIT\npragma solidity >=0.8.9 <0.9.0;\n\nimport \"@openzeppelin/contracts/security/ReentrancyGuard.sol\";\nimport \"@openzeppelin/contracts/utils/Context.sol\";\nimport \"@openzeppelin/contracts/proxy/utils/Initializable.sol\";\nimport \"./interfaces/ISmarterContract.sol\";\n\n/// @title SmarterContract - a Blockchain implementation for contracting and milestones payment\n/// @author Manuel Kirstetter\n/// @notice Use for testing purpose only, no guarantee\n/// @custom:experimental This is an experimental contract.\ncontract SmarterContract is ISmarterContract, Initializable, Context, ReentrancyGuard {\n    /// @notice contract locked state\n    /// @return returns contract locked state\n    bool public locked;\n\n    /// @notice contract external id\n    /// @return returns contract external id\n    string public externalId;\n\n    /// @notice contract client address\n    /// @return returns contract client address\n    address public client;\n\n    /// @notice contract provider address\n    /// @return returns contract provider address\n    address public provider;\n\n    /// @notice total contract value\n    /// @return returns total contract value\n    uint256 public total = 0;\n\n    /// @notice contract current milestone\n    /// @return returns contract current milestone\n    uint256 public currentMilestone = 0;\n\n    /// @notice contract milestones\n    /// @return returns contract milestone of id/index\n    uint256[] public milestones;\n\n    /// @notice event fired at contract creation\n    /// @param externalId contract external id\n    /// @param client contract client\n    /// @param provider contract provider\n    /// @param milestones array of all contract milestones\n    /// @dev externalId, client & provider are indexed in topics\n    event Register(\n        string indexed externalId,\n        address indexed client,\n        address indexed provider,\n        uint256[] milestones\n    );\n\n    /// @notice event fired at fund deposit\n    /// @param amount deposit amount\n    event Received(uint256 amount);\n\n    /// @notice event fired at milestone release/fund transfer\n    /// @param milestone milestone id/index\n    /// @param amount amount transferred\n    event Release(uint256 milestone, uint256 amount);\n\n    modifier isNotLocked () {\n        require (!locked, \"Contract is locked\");\n        _;\n    }\n\n    modifier isClient (address _address) {\n        require (_address == client, \"You are not contract Client\");\n        _;\n    }\n\n    modifier isReleasable () {\n        require (address(this).balance > 0, \"Can't release any milestone. Have you deposit funds?\");\n        _;\n    }\n\n    /// @notice initialize a new contract with provided params\n    /// @param _externalId contract external id\n    /// @param _client client address\n    /// @param _provider provider address\n    /// @param _milestones array of milestone amounts\n    /// @dev this function has the role of constructor here - factory pattern\n    /// @dev this function initializes contract - see CWE-665\n    function init(\n        string calldata _externalId,\n        address _client,\n        address _provider,\n        uint256[] calldata _milestones\n    ) external override initializer {\n        require(_client != address(0), \"Client address is invalid\");\n        require(_provider != address(0), \"Provider address is invalid\");\n\n        externalId = _externalId;\n        client = _client;\n        provider = _provider;\n        milestones = _milestones;\n        for (uint256 i = 0; i < milestones.length; i++) {\n            total = total + milestones[i];\n        }\n\n        emit Register(_externalId, _client, _provider, milestones);\n    }\n\n    /// @notice to get number of milestones\n    /// @return returns the milestones array length\n    function milestonesListLength() external view returns (uint256) {\n        return milestones.length;\n    }\n\n    /// @notice releases milestone and transfer milestone associated fund\n    /// @param _milestone milestone id/index to release\n    /// @dev reentrancy protection modifier - see SWC-107\n    function release(uint256 _milestone) external nonReentrant isNotLocked isClient(_msgSender()) isReleasable {\n        require(_milestone == currentMilestone, \"Invalid milestone: this is not the current milestone to release\");\n\n        currentMilestone = _milestone + 1;\n\n        emit Release(_milestone, milestones[_milestone]);\n\n        _transfer(provider, milestones[_milestone]);\n    }\n\n    /// @notice transfer funds to address\n    /// @param _to address to transfer funds\n    /// @param _amount amount to be transferred\n    /// @dev using up-to-date way to transfer funds, without gas limit and with access control - see SWC-134 & SWC-105\n    function _transfer(address _to, uint _amount) private isNotLocked {\n        require(_to == provider, \"Transfer address is invalid\");\n        require(address(this).balance >= _amount, \"Insufficient contract balance\");\n\n        (bool success, ) = payable(_to).call{value: _amount}(\"\");\n        require(success, \"Failed to transfer\");\n    }\n\n    /// @notice deposit funds to contract\n    receive() external payable isNotLocked isClient(_msgSender()) {\n        require(msg.value == total, 'Deposit should be total contract amount');\n        emit Received(msg.value);\n    }\n}",
  "sourcePath": "/Users/manu/Blockchain/blockchain-developer-bootcamp-final-project/contracts/SmarterContract.sol",
  "compiler": {
    "name": "solc",
    "version": "0.8.9+commit.e5eed63a.Emscripten.clang"
  },
  "schemaVersion": "3.4.3",
  "updatedAt": "2021-11-29T19:41:50.173Z",
  "devdoc": {
    "author": "Manuel Kirstetter",
    "custom:experimental": "This is an experimental contract.",
    "events": {
      "Received(uint256)": {
        "params": {
          "amount": "deposit amount"
        }
      },
      "Register(string,address,address,uint256[])": {
        "details": "externalId, client & provider are indexed in topics",
        "params": {
          "client": "contract client",
          "externalId": "contract external id",
          "milestones": "array of all contract milestones",
          "provider": "contract provider"
        }
      },
      "Release(uint256,uint256)": {
        "params": {
          "amount": "amount transferred",
          "milestone": "milestone id/index"
        }
      }
    },
    "kind": "dev",
    "methods": {
      "init(string,address,address,uint256[])": {
        "details": "this function has the role of constructor here - factory patternthis function initializes contract - see CWE-665",
        "params": {
          "_client": "client address",
          "_externalId": "contract external id",
          "_milestones": "array of milestone amounts",
          "_provider": "provider address"
        }
      },
      "milestonesListLength()": {
        "returns": {
          "_0": "returns the milestones array length"
        }
      },
      "release(uint256)": {
        "details": "reentrancy protection modifier - see SWC-107",
        "params": {
          "_milestone": "milestone id/index to release"
        }
      }
    },
    "stateVariables": {
      "client": {
        "return": "returns contract client address",
        "returns": {
          "_0": "returns contract client address"
        }
      },
      "currentMilestone": {
        "return": "returns contract current milestone",
        "returns": {
          "_0": "returns contract current milestone"
        }
      },
      "externalId": {
        "return": "returns contract external id",
        "returns": {
          "_0": "returns contract external id"
        }
      },
      "locked": {
        "return": "returns contract locked state",
        "returns": {
          "_0": "returns contract locked state"
        }
      },
      "milestones": {
        "return": "returns contract milestone of id/index",
        "returns": {
          "_0": "returns contract milestone of id/index"
        }
      },
      "provider": {
        "return": "returns contract provider address",
        "returns": {
          "_0": "returns contract provider address"
        }
      },
      "total": {
        "return": "returns total contract value",
        "returns": {
          "_0": "returns total contract value"
        }
      }
    },
    "title": "SmarterContract - a Blockchain implementation for contracting and milestones payment",
    "version": 1
  },
  "userdoc": {
    "events": {
      "Received(uint256)": {
        "notice": "event fired at fund deposit"
      },
      "Register(string,address,address,uint256[])": {
        "notice": "event fired at contract creation"
      },
      "Release(uint256,uint256)": {
        "notice": "event fired at milestone release/fund transfer"
      }
    },
    "kind": "user",
    "methods": {
      "client()": {
        "notice": "contract client address"
      },
      "currentMilestone()": {
        "notice": "contract current milestone"
      },
      "externalId()": {
        "notice": "contract external id"
      },
      "init(string,address,address,uint256[])": {
        "notice": "initialize a new contract with provided params"
      },
      "locked()": {
        "notice": "contract locked state"
      },
      "milestones(uint256)": {
        "notice": "contract milestones"
      },
      "milestonesListLength()": {
        "notice": "to get number of milestones"
      },
      "provider()": {
        "notice": "contract provider address"
      },
      "release(uint256)": {
        "notice": "releases milestone and transfer milestone associated fund"
      },
      "total()": {
        "notice": "total contract value"
      }
    },
    "notice": "Use for testing purpose only, no guarantee",
    "version": 1
  }
}