{
  "contractName": "SmartGigs",
  "abi": [
    {
      "inputs": [],
      "stateMutability": "nonpayable",
      "type": "constructor"
    },
    {
      "anonymous": false,
      "inputs": [
        {
          "indexed": false,
          "internalType": "uint256",
          "name": "gigId",
          "type": "uint256"
        }
      ],
      "name": "LogEnrolled",
      "type": "event"
    },
    {
      "anonymous": false,
      "inputs": [
        {
          "indexed": false,
          "internalType": "uint256",
          "name": "gigId",
          "type": "uint256"
        },
        {
          "indexed": false,
          "internalType": "enum SmartGigs.Status",
          "name": "",
          "type": "uint8"
        }
      ],
      "name": "LogGigStatusChange",
      "type": "event"
    },
    {
      "anonymous": false,
      "inputs": [
        {
          "indexed": false,
          "internalType": "uint256",
          "name": "gigId",
          "type": "uint256"
        }
      ],
      "name": "LogWorkSubmitted",
      "type": "event"
    },
    {
      "inputs": [
        {
          "internalType": "uint256",
          "name": "",
          "type": "uint256"
        },
        {
          "internalType": "uint256",
          "name": "",
          "type": "uint256"
        }
      ],
      "name": "enrolledFreelancers",
      "outputs": [
        {
          "internalType": "address",
          "name": "",
          "type": "address"
        }
      ],
      "stateMutability": "view",
      "type": "function",
      "constant": true
    },
    {
      "inputs": [
        {
          "internalType": "uint256",
          "name": "",
          "type": "uint256"
        }
      ],
      "name": "gigs",
      "outputs": [
        {
          "internalType": "string",
          "name": "name",
          "type": "string"
        },
        {
          "internalType": "uint256",
          "name": "compensation",
          "type": "uint256"
        },
        {
          "internalType": "enum SmartGigs.Status",
          "name": "status",
          "type": "uint8"
        },
        {
          "internalType": "address",
          "name": "owner",
          "type": "address"
        },
        {
          "internalType": "uint8",
          "name": "freelancersNumber",
          "type": "uint8"
        },
        {
          "internalType": "address",
          "name": "awardedTo",
          "type": "address"
        }
      ],
      "stateMutability": "view",
      "type": "function",
      "constant": true
    },
    {
      "inputs": [],
      "name": "gigsCount",
      "outputs": [
        {
          "internalType": "uint256",
          "name": "",
          "type": "uint256"
        }
      ],
      "stateMutability": "view",
      "type": "function",
      "constant": true
    },
    {
      "inputs": [
        {
          "internalType": "address",
          "name": "",
          "type": "address"
        },
        {
          "internalType": "uint256",
          "name": "",
          "type": "uint256"
        }
      ],
      "name": "worksByFreelancer",
      "outputs": [
        {
          "internalType": "uint256",
          "name": "gigId",
          "type": "uint256"
        },
        {
          "internalType": "address",
          "name": "owner",
          "type": "address"
        },
        {
          "internalType": "address",
          "name": "contractAddress",
          "type": "address"
        },
        {
          "internalType": "bool",
          "name": "valid",
          "type": "bool"
        }
      ],
      "stateMutability": "view",
      "type": "function",
      "constant": true
    },
    {
      "inputs": [
        {
          "internalType": "uint256",
          "name": "",
          "type": "uint256"
        },
        {
          "internalType": "uint256",
          "name": "",
          "type": "uint256"
        }
      ],
      "name": "worksByGig",
      "outputs": [
        {
          "internalType": "uint256",
          "name": "gigId",
          "type": "uint256"
        },
        {
          "internalType": "address",
          "name": "owner",
          "type": "address"
        },
        {
          "internalType": "address",
          "name": "contractAddress",
          "type": "address"
        },
        {
          "internalType": "bool",
          "name": "valid",
          "type": "bool"
        }
      ],
      "stateMutability": "view",
      "type": "function",
      "constant": true
    },
    {
      "inputs": [
        {
          "internalType": "string",
          "name": "_name",
          "type": "string"
        },
        {
          "internalType": "uint8",
          "name": "_freelancersNumber",
          "type": "uint8"
        }
      ],
      "name": "createGig",
      "outputs": [
        {
          "internalType": "bool",
          "name": "",
          "type": "bool"
        }
      ],
      "stateMutability": "payable",
      "type": "function",
      "payable": true
    },
    {
      "inputs": [
        {
          "internalType": "uint256",
          "name": "_gigId",
          "type": "uint256"
        }
      ],
      "name": "enroll",
      "outputs": [
        {
          "internalType": "address",
          "name": "",
          "type": "address"
        }
      ],
      "stateMutability": "payable",
      "type": "function",
      "payable": true
    },
    {
      "inputs": [
        {
          "internalType": "uint256",
          "name": "_gigId",
          "type": "uint256"
        }
      ],
      "name": "isEnrolled",
      "outputs": [
        {
          "internalType": "bool",
          "name": "",
          "type": "bool"
        }
      ],
      "stateMutability": "view",
      "type": "function",
      "constant": true
    },
    {
      "inputs": [
        {
          "internalType": "uint256",
          "name": "_gigId",
          "type": "uint256"
        },
        {
          "internalType": "address",
          "name": "_contractAddress",
          "type": "address"
        }
      ],
      "name": "submitWork",
      "outputs": [
        {
          "internalType": "bool",
          "name": "",
          "type": "bool"
        }
      ],
      "stateMutability": "nonpayable",
      "type": "function"
    },
    {
      "inputs": [
        {
          "internalType": "uint256",
          "name": "_gigId",
          "type": "uint256"
        },
        {
          "internalType": "address",
          "name": "_awardedFreelancer",
          "type": "address"
        }
      ],
      "name": "awardTo",
      "outputs": [
        {
          "internalType": "address",
          "name": "",
          "type": "address"
        }
      ],
      "stateMutability": "nonpayable",
      "type": "function"
    }
  ],
  "bytecode": "0x608060405267016345785d8a000060015534801561001c57600080fd5b506000808190555061240d806100336000396000f3fe6080604052600436106100915760003560e01c80638f8fd61a116100595780638f8fd61a146101c5578063c83269f614610202578063d1bb8c531461022d578063eaa7e5cc1461026a578063f57d585b146102a757610091565b8063106133731461009657806313a94131146100d65780632674ba231461011657806338c4476a146101535780635e3fbdc814610183575b600080fd5b3480156100a257600080fd5b506100bd60048036038101906100b891906117a9565b6102d7565b6040516100cd9493929190611854565b60405180910390f35b3480156100e257600080fd5b506100fd60048036038101906100f891906118c5565b610371565b60405161010d9493929190611854565b60405180910390f35b34801561012257600080fd5b5061013d60048036038101906101389190611905565b61040b565b60405161014a9190611945565b60405180910390f35b61016d60048036038101906101689190611adf565b61096b565b60405161017a9190611945565b60405180910390f35b34801561018f57600080fd5b506101aa60048036038101906101a59190611b3b565b610c04565b6040516101bc96959493929190611c76565b60405180910390f35b3480156101d157600080fd5b506101ec60048036038101906101e79190611905565b610d22565b6040516101f99190611cde565b60405180910390f35b34801561020e57600080fd5b50610217610fa3565b6040516102249190611cf9565b60405180910390f35b34801561023957600080fd5b50610254600480360381019061024f9190611b3b565b610fa9565b6040516102619190611945565b60405180910390f35b34801561027657600080fd5b50610291600480360381019061028c91906117a9565b611123565b60405161029e9190611cde565b60405180910390f35b6102c160048036038101906102bc9190611b3b565b611171565b6040516102ce9190611cde565b60405180910390f35b600560205281600052604060002081815481106102f357600080fd5b9060005260206000209060030201600091509150508060000154908060010160009054906101000a900473ffffffffffffffffffffffffffffffffffffffff16908060020160009054906101000a900473ffffffffffffffffffffffffffffffffffffffff16908060020160149054906101000a900460ff16905084565b6004602052816000526040600020818154811061038d57600080fd5b9060005260206000209060030201600091509150508060000154908060010160009054906101000a900473ffffffffffffffffffffffffffffffffffffffff16908060020160009054906101000a900473ffffffffffffffffffffffffffffffffffffffff16908060020160149054906101000a900460ff16905084565b60006002600084815260200190815260200160002060020160019054906101000a900473ffffffffffffffffffffffffffffffffffffffff168073ffffffffffffffffffffffffffffffffffffffff163373ffffffffffffffffffffffffffffffffffffffff1614156104b3576040517f08c379a00000000000000000000000000000000000000000000000000000000081526004016104aa90611d86565b60405180910390fd5b600160038111156104c7576104c6611bf0565b5b6002600086815260200190815260200160002060020160009054906101000a900460ff1660038111156104fd576104fc611bf0565b5b1461053d576040517f08c379a000000000000000000000000000000000000000000000000000000000815260040161053490611df2565b60405180910390fd5b6001151561054a85610fa9565b15151461058c576040517f08c379a000000000000000000000000000000000000000000000000000000000815260040161058390611e5e565b60405180910390fd5b600015156105998561148a565b1515146105db576040517f08c379a00000000000000000000000000000000000000000000000000000000081526004016105d290611ef0565b60405180910390fd5b600060405180608001604052808681526020013373ffffffffffffffffffffffffffffffffffffffff1681526020018573ffffffffffffffffffffffffffffffffffffffff168152602001600115158152509050600560008681526020019081526020016000208190806001815401808255809150506001900390600052602060002090600302016000909190919091506000820151816000015560208201518160010160006101000a81548173ffffffffffffffffffffffffffffffffffffffff021916908373ffffffffffffffffffffffffffffffffffffffff16021790555060408201518160020160006101000a81548173ffffffffffffffffffffffffffffffffffffffff021916908373ffffffffffffffffffffffffffffffffffffffff16021790555060608201518160020160146101000a81548160ff0219169083151502179055505050600460003373ffffffffffffffffffffffffffffffffffffffff1673ffffffffffffffffffffffffffffffffffffffff1681526020019081526020016000208190806001815401808255809150506001900390600052602060002090600302016000909190919091506000820151816000015560208201518160010160006101000a81548173ffffffffffffffffffffffffffffffffffffffff021916908373ffffffffffffffffffffffffffffffffffffffff16021790555060408201518160020160006101000a81548173ffffffffffffffffffffffffffffffffffffffff021916908373ffffffffffffffffffffffffffffffffffffffff16021790555060608201518160020160146101000a81548160ff02191690831515021790555050506002600086815260200190815260200160002060020160159054906101000a900460ff1660ff166005600087815260200190815260200160002080549050141561092857600280600087815260200190815260200160002060020160006101000a81548160ff021916908360038111156108c6576108c5611bf0565b5b02179055507f4df6e143fd09a93aabb5c1afeee86b614d42f2f4fcef12f25ed5941f6acf07da856002600088815260200190815260200160002060020160009054906101000a900460ff1660405161091f929190611f10565b60405180910390a15b7f583c8c694dabe8165afc8542b4e701d5a9387865ad4a5113da5ac03c99e38e0b856040516109579190611cf9565b60405180910390a160019250505092915050565b60006001543410156109b2576040517f08c379a00000000000000000000000000000000000000000000000000000000081526004016109a990611fab565b60405180910390fd5b60018260ff1610156109f9576040517f08c379a00000000000000000000000000000000000000000000000000000000081526004016109f09061203d565b60405180910390fd5b6001600054610a08919061208c565b6000819055506040518060c0016040528084815260200134815260200160006003811115610a3957610a38611bf0565b5b81526020013373ffffffffffffffffffffffffffffffffffffffff1681526020018360ff168152602001600073ffffffffffffffffffffffffffffffffffffffff1681525060026000805481526020019081526020016000206000820151816000019080519060200190610aae9291906116bc565b506020820151816001015560408201518160020160006101000a81548160ff02191690836003811115610ae457610ae3611bf0565b5b021790555060608201518160020160016101000a81548173ffffffffffffffffffffffffffffffffffffffff021916908373ffffffffffffffffffffffffffffffffffffffff16021790555060808201518160020160156101000a81548160ff021916908360ff16021790555060a08201518160030160006101000a81548173ffffffffffffffffffffffffffffffffffffffff021916908373ffffffffffffffffffffffffffffffffffffffff1602179055509050507f4df6e143fd09a93aabb5c1afeee86b614d42f2f4fcef12f25ed5941f6acf07da600054600260008054815260200190815260200160002060020160009054906101000a900460ff16604051610bf2929190611f10565b60405180910390a16001905092915050565b6002602052806000526040600020600091509050806000018054610c2790612111565b80601f0160208091040260200160405190810160405280929190818152602001828054610c5390612111565b8015610ca05780601f10610c7557610100808354040283529160200191610ca0565b820191906000526020600020905b815481529060010190602001808311610c8357829003601f168201915b5050505050908060010154908060020160009054906101000a900460ff16908060020160019054906101000a900473ffffffffffffffffffffffffffffffffffffffff16908060020160159054906101000a900460ff16908060030160009054906101000a900473ffffffffffffffffffffffffffffffffffffffff16905086565b60006002600084815260200190815260200160002060020160019054906101000a900473ffffffffffffffffffffffffffffffffffffffff168073ffffffffffffffffffffffffffffffffffffffff163373ffffffffffffffffffffffffffffffffffffffff1614610dc9576040517f08c379a0000000000000000000000000000000000000000000000000000000008152600401610dc09061218f565b60405180910390fd5b60026003811115610ddd57610ddc611bf0565b5b6002600086815260200190815260200160002060020160009054906101000a900460ff166003811115610e1357610e12611bf0565b5b14610e53576040517f08c379a0000000000000000000000000000000000000000000000000000000008152600401610e4a90611df2565b60405180910390fd5b826002600086815260200190815260200160002060030160006101000a81548173ffffffffffffffffffffffffffffffffffffffff021916908373ffffffffffffffffffffffffffffffffffffffff16021790555060036002600086815260200190815260200160002060020160006101000a81548160ff02191690836003811115610ee257610ee1611bf0565b5b02179055507f4df6e143fd09a93aabb5c1afeee86b614d42f2f4fcef12f25ed5941f6acf07da846002600087815260200190815260200160002060020160009054906101000a900460ff16604051610f3b929190611f10565b60405180910390a1610f996002600086815260200190815260200160002060030160009054906101000a900473ffffffffffffffffffffffffffffffffffffffff16600260008781526020019081526020016000206001015461160b565b8291505092915050565b60005481565b60006002600083815260200190815260200160002060020160019054906101000a900473ffffffffffffffffffffffffffffffffffffffff168073ffffffffffffffffffffffffffffffffffffffff163373ffffffffffffffffffffffffffffffffffffffff161415611051576040517f08c379a000000000000000000000000000000000000000000000000000000000815260040161104890611d86565b60405180910390fd5b6000805b6003600086815260200190815260200160002080549050811015611118573373ffffffffffffffffffffffffffffffffffffffff166003600087815260200190815260200160002082815481106110af576110ae6121af565b5b9060005260206000200160009054906101000a900473ffffffffffffffffffffffffffffffffffffffff1673ffffffffffffffffffffffffffffffffffffffff161480156110fb575081155b1561110557600191505b8080611110906121de565b915050611055565b508092505050919050565b6003602052816000526040600020818154811061113f57600080fd5b906000526020600020016000915091509054906101000a900473ffffffffffffffffffffffffffffffffffffffff1681565b60006002600083815260200190815260200160002060020160019054906101000a900473ffffffffffffffffffffffffffffffffffffffff168073ffffffffffffffffffffffffffffffffffffffff163373ffffffffffffffffffffffffffffffffffffffff161415611219576040517f08c379a000000000000000000000000000000000000000000000000000000000815260040161121090611d86565b60405180910390fd5b826000600381111561122e5761122d611bf0565b5b6002600083815260200190815260200160002060020160009054906101000a900460ff16600381111561126457611263611bf0565b5b146112a4576040517f08c379a000000000000000000000000000000000000000000000000000000000815260040161129b90612273565b60405180910390fd5b83600015156112b282610fa9565b1515146112f4576040517f08c379a00000000000000000000000000000000000000000000000000000000081526004016112eb90612305565b60405180910390fd5b60036000868152602001908152602001600020339080600181540180825580915050600190039060005260206000200160009091909190916101000a81548173ffffffffffffffffffffffffffffffffffffffff021916908373ffffffffffffffffffffffffffffffffffffffff1602179055506002600086815260200190815260200160002060020160159054906101000a900460ff1660ff16600360008781526020019081526020016000208054905014156114485760016002600087815260200190815260200160002060020160006101000a81548160ff021916908360038111156113e6576113e5611bf0565b5b02179055507f4df6e143fd09a93aabb5c1afeee86b614d42f2f4fcef12f25ed5941f6acf07da856002600088815260200190815260200160002060020160009054906101000a900460ff1660405161143f929190611f10565b60405180910390a15b7f85d7ded8ed66069b914688b9f5ac43461ded75a3992b6b2321adbba65266ff63856040516114779190611cf9565b60405180910390a1339350505050919050565b60006002600083815260200190815260200160002060020160019054906101000a900473ffffffffffffffffffffffffffffffffffffffff168073ffffffffffffffffffffffffffffffffffffffff163373ffffffffffffffffffffffffffffffffffffffff161415611532576040517f08c379a000000000000000000000000000000000000000000000000000000000815260040161152990611d86565b60405180910390fd5b6000805b6005600086815260200190815260200160002080549050811015611600573373ffffffffffffffffffffffffffffffffffffffff166005600087815260200190815260200160002082815481106115905761158f6121af565b5b906000526020600020906003020160010160009054906101000a900473ffffffffffffffffffffffffffffffffffffffff1673ffffffffffffffffffffffffffffffffffffffff161480156115e3575081155b156115ed57600191505b80806115f8906121de565b915050611536565b508092505050919050565b60008273ffffffffffffffffffffffffffffffffffffffff168260405161163190612356565b60006040518083038185875af1925050503d806000811461166e576040519150601f19603f3d011682016040523d82523d6000602084013e611673565b606091505b50509050806116b7576040517f08c379a00000000000000000000000000000000000000000000000000000000081526004016116ae906123b7565b60405180910390fd5b505050565b8280546116c890612111565b90600052602060002090601f0160209004810192826116ea5760008555611731565b82601f1061170357805160ff1916838001178555611731565b82800160010185558215611731579182015b82811115611730578251825591602001919060010190611715565b5b50905061173e9190611742565b5090565b5b8082111561175b576000816000905550600101611743565b5090565b6000604051905090565b600080fd5b600080fd5b6000819050919050565b61178681611773565b811461179157600080fd5b50565b6000813590506117a38161177d565b92915050565b600080604083850312156117c0576117bf611769565b5b60006117ce85828601611794565b92505060206117df85828601611794565b9150509250929050565b6117f281611773565b82525050565b600073ffffffffffffffffffffffffffffffffffffffff82169050919050565b6000611823826117f8565b9050919050565b61183381611818565b82525050565b60008115159050919050565b61184e81611839565b82525050565b600060808201905061186960008301876117e9565b611876602083018661182a565b611883604083018561182a565b6118906060830184611845565b95945050505050565b6118a281611818565b81146118ad57600080fd5b50565b6000813590506118bf81611899565b92915050565b600080604083850312156118dc576118db611769565b5b60006118ea858286016118b0565b92505060206118fb85828601611794565b9150509250929050565b6000806040838503121561191c5761191b611769565b5b600061192a85828601611794565b925050602061193b858286016118b0565b9150509250929050565b600060208201905061195a6000830184611845565b92915050565b600080fd5b600080fd5b6000601f19601f8301169050919050565b7f4e487b7100000000000000000000000000000000000000000000000000000000600052604160045260246000fd5b6119b38261196a565b810181811067ffffffffffffffff821117156119d2576119d161197b565b5b80604052505050565b60006119e561175f565b90506119f182826119aa565b919050565b600067ffffffffffffffff821115611a1157611a1061197b565b5b611a1a8261196a565b9050602081019050919050565b82818337600083830152505050565b6000611a49611a44846119f6565b6119db565b905082815260208101848484011115611a6557611a64611965565b5b611a70848285611a27565b509392505050565b600082601f830112611a8d57611a8c611960565b5b8135611a9d848260208601611a36565b91505092915050565b600060ff82169050919050565b611abc81611aa6565b8114611ac757600080fd5b50565b600081359050611ad981611ab3565b92915050565b60008060408385031215611af657611af5611769565b5b600083013567ffffffffffffffff811115611b1457611b1361176e565b5b611b2085828601611a78565b9250506020611b3185828601611aca565b9150509250929050565b600060208284031215611b5157611b50611769565b5b6000611b5f84828501611794565b91505092915050565b600081519050919050565b600082825260208201905092915050565b60005b83811015611ba2578082015181840152602081019050611b87565b83811115611bb1576000848401525b50505050565b6000611bc282611b68565b611bcc8185611b73565b9350611bdc818560208601611b84565b611be58161196a565b840191505092915050565b7f4e487b7100000000000000000000000000000000000000000000000000000000600052602160045260246000fd5b60048110611c3057611c2f611bf0565b5b50565b6000819050611c4182611c1f565b919050565b6000611c5182611c33565b9050919050565b611c6181611c46565b82525050565b611c7081611aa6565b82525050565b600060c0820190508181036000830152611c908189611bb7565b9050611c9f60208301886117e9565b611cac6040830187611c58565b611cb9606083018661182a565b611cc66080830185611c67565b611cd360a083018461182a565b979650505050505050565b6000602082019050611cf3600083018461182a565b92915050565b6000602082019050611d0e60008301846117e9565b92915050565b7f596f75206172652074686520676967206f776e65722c20796f752063616e277460008201527f20656e726f6c6c2f7375626d697420776f726b2e000000000000000000000000602082015250565b6000611d70603483611b73565b9150611d7b82611d14565b604082019050919050565b60006020820190508181036000830152611d9f81611d63565b9050919050565b7f47696720737461747573206973206e6f742076616c69642e0000000000000000600082015250565b6000611ddc601883611b73565b9150611de782611da6565b602082019050919050565b60006020820190508181036000830152611e0b81611dcf565b9050919050565b7f596f75277265206e6f7420656e726f6c6c656420746f2074686973206769672e600082015250565b6000611e48602083611b73565b9150611e5382611e12565b602082019050919050565b60006020820190508181036000830152611e7781611e3b565b9050919050565b7f596f7527766520616c7265616479207375626d697420796f757220776f726b2060008201527f746f2074686973206769672e0000000000000000000000000000000000000000602082015250565b6000611eda602c83611b73565b9150611ee582611e7e565b604082019050919050565b60006020820190508181036000830152611f0981611ecd565b9050919050565b6000604082019050611f2560008301856117e9565b611f326020830184611c58565b9392505050565b7f42656c6f7720746865207265717569726564206d696e696d756d20636f6d706560008201527f6e736174696f6e2e000000000000000000000000000000000000000000000000602082015250565b6000611f95602883611b73565b9150611fa082611f39565b604082019050919050565b60006020820190508181036000830152611fc481611f88565b9050919050565b7f42656c6f7720746865207265717569726564206d696e696d756d20667265656c60008201527f616e636572734e756d6265722e00000000000000000000000000000000000000602082015250565b6000612027602d83611b73565b915061203282611fcb565b604082019050919050565b600060208201905081810360008301526120568161201a565b9050919050565b7f4e487b7100000000000000000000000000000000000000000000000000000000600052601160045260246000fd5b600061209782611773565b91506120a283611773565b9250827fffffffffffffffffffffffffffffffffffffffffffffffffffffffffffffffff038211156120d7576120d661205d565b5b828201905092915050565b7f4e487b7100000000000000000000000000000000000000000000000000000000600052602260045260246000fd5b6000600282049050600182168061212957607f821691505b6020821081141561213d5761213c6120e2565b5b50919050565b7f596f7520617265206e6f742074686520676967206f776e65722e000000000000600082015250565b6000612179601a83611b73565b915061218482612143565b602082019050919050565b600060208201905081810360008301526121a88161216c565b9050919050565b7f4e487b7100000000000000000000000000000000000000000000000000000000600052603260045260246000fd5b60006121e982611773565b91507fffffffffffffffffffffffffffffffffffffffffffffffffffffffffffffffff82141561221c5761221b61205d565b5b600182019050919050565b7f596f752063616e277420656e726f6c6c20746f2074686973206769672e000000600082015250565b600061225d601d83611b73565b915061226882612227565b602082019050919050565b6000602082019050818103600083015261228c81612250565b9050919050565b7f596f7527726520616c726561647920656e726f6c6c656420746f20746869732060008201527f6769672e00000000000000000000000000000000000000000000000000000000602082015250565b60006122ef602483611b73565b91506122fa82612293565b604082019050919050565b6000602082019050818103600083015261231e816122e2565b9050919050565b600081905092915050565b50565b6000612340600083612325565b915061234b82612330565b600082019050919050565b600061236182612333565b9150819050919050565b7f4661696c656420746f2073656e642045746865722e0000000000000000000000600082015250565b60006123a1601583611b73565b91506123ac8261236b565b602082019050919050565b600060208201905081810360008301526123d081612394565b905091905056fea264697066735822122094483e0a85d68267e4d73ad5e6063cfc3fda204bf6a9972d8d576da4b43b2bd764736f6c63430008090033",
  "immutableReferences": {},
  "source": "// SPDX-License-Identifier: MIT\npragma solidity >=0.8.9 <0.9.0;\n\ncontract SmartGigs {\n\n    uint public gigsCount;\n\n    // Minimum freelancers compensation\n    uint minimumCompensation = 100000000000000000;\n\n    // Gig statuses\n    enum Status { registered, open, review, awarded }\n\n\n    // Gigs\n    struct Gig {\n        string name;\n        uint compensation;\n        Status status;\n        address owner;\n        // Number of Freelancers allowed to enroll\n        uint8 freelancersNumber;\n        address awardedTo;\n    }\n\n    mapping (uint => Gig) public gigs;\n\n\n    // Works\n    // @TODO: validate contractAddress (see README)\n    struct Work {\n        uint gigId;\n        address owner;\n        address contractAddress;\n        bool valid;\n    }\n\n    // To get all Freelancers per gigId\n    mapping (uint => address[]) public enrolledFreelancers;\n    // To get all Works per Freelancer address\n    mapping (address => Work[]) public worksByFreelancer;\n    // To get all Works per gigId\n    mapping (uint => Work[]) public worksByGig;\n\n\n    // Events\n    event LogGigStatusChange(uint gigId, Status);\n    event LogEnrolled(uint gigId);\n    event LogWorkSubmitted(uint gigId);\n\n\n    // Modifiers\n    modifier isOwner (address _address) {\n        require (msg.sender == _address, \"You are not the gig owner.\");\n        _;\n    }\n\n    modifier isNotOwner (address _address) {\n        require (msg.sender != _address, \"You are the gig owner, you can't enroll/submit work.\");\n        _;\n    }\n\n    modifier isStatusRegistered (uint _gigId) {\n        require (gigs[_gigId].status == Status.registered, \"You can't enroll to this gig.\");\n        _;\n    }\n\n    modifier isFreelancerEnrolled (uint _gigId) {\n        require (isEnrolled(_gigId) == false, \"You're already enrolled to this gig.\");\n        _;\n    }\n\n\n    constructor() {\n        // Need to be initialized for iteration on createGig function\n        gigsCount = 0;\n    }\n\n\n    function createGig (string memory _name, uint8 _freelancersNumber)\n        public\n        payable\n        returns (bool)\n    {\n\n        require(\n            msg.value >= minimumCompensation,\n            \"Below the required minimum compensation.\"\n        );\n        require(\n            _freelancersNumber >= 1,\n            \"Below the required minimum freelancersNumber.\"\n        );\n        gigsCount = gigsCount + 1;\n        // Adding Gig to gigs mapping\n        gigs[gigsCount] = Gig({\n            name: _name,\n            compensation: msg.value,\n            status: Status.registered,\n            owner: msg.sender,\n            freelancersNumber: _freelancersNumber,\n            awardedTo: address(0)\n        });\n        emit LogGigStatusChange(gigsCount, gigs[gigsCount].status);\n\n        return true;\n    }\n\n    function enroll (uint _gigId)\n        public\n        payable\n        isNotOwner(gigs[_gigId].owner)\n        isStatusRegistered(_gigId)\n        isFreelancerEnrolled(_gigId)\n        returns (address)\n    {\n\n        // Push Freelancer address to enrolledFreelancers mapping Array\n        enrolledFreelancers[_gigId].push(msg.sender);\n        // Update status when desired Freelancers number is reached\n        if (enrolledFreelancers[_gigId].length == gigs[_gigId].freelancersNumber) {\n            gigs[_gigId].status = Status.open;\n            emit LogGigStatusChange(_gigId, gigs[_gigId].status);\n        }\n        emit LogEnrolled(_gigId);\n\n        return msg.sender;\n\n    }\n\n    function isEnrolled (uint _gigId)\n        public\n        view\n        isNotOwner(gigs[_gigId].owner)\n        returns (bool)\n    {\n\n        bool enrolled = false;\n        // Loop through enrolledFreelancers mapping Array\n        for (uint i = 0; i < enrolledFreelancers[_gigId].length; i++) {\n            // If sender is in Array\n            if (enrolledFreelancers[_gigId][i] == msg.sender && !enrolled) {\n                enrolled = true;\n            }\n        }\n\n        return enrolled;\n\n    }\n\n    function hasAlreadySubmitToGig (uint _gigId)\n        private\n        view\n        isNotOwner(gigs[_gigId].owner)\n        returns (bool)\n    {\n\n        bool submitted = false;\n        // Loop through worksByGig mapping Array\n        for (uint i = 0; i < worksByGig[_gigId].length; i++) {\n            // If sender is in Array\n            if (worksByGig[_gigId][i].owner == msg.sender && !submitted) {\n                submitted = true;\n            }\n        }\n\n        return submitted;\n\n    }\n\n    // @TODO: _contractAddress should be a valid deployed contract, with sender address as owner\n    function submitWork (uint _gigId, address _contractAddress)\n        public\n        isNotOwner(gigs[_gigId].owner)\n        returns (bool)\n    {\n\n        require(\n            gigs[_gigId].status == Status.open,\n            \"Gig status is not valid.\"\n        );\n        require (\n            isEnrolled(_gigId) == true,\n            \"You're not enrolled to this gig.\"\n        );\n        require (\n            hasAlreadySubmitToGig(_gigId) == false,\n            \"You've already submit your work to this gig.\"\n        );\n        // Store work in local memory\n        Work memory work = Work({\n            gigId: _gigId,\n            owner: msg.sender,\n            contractAddress: _contractAddress,\n            valid: true\n        });\n        // Push work in worksByGig mapping Array\n        worksByGig[_gigId].push(work);\n        // Push work in worksByFreelancer mapping Array\n        worksByFreelancer[msg.sender].push(work);\n        // If submitted work number == required number of Freelancers, status change\n        if (worksByGig[_gigId].length == gigs[_gigId].freelancersNumber) {\n            gigs[_gigId].status = Status.review;\n            emit LogGigStatusChange(_gigId, gigs[_gigId].status);\n        }\n        emit LogWorkSubmitted(_gigId);\n\n        return true;\n\n    }\n\n    function awardTo (uint _gigId, address _awardedFreelancer)\n        public\n        isOwner(gigs[_gigId].owner)\n        returns (address)\n    {\n\n        require(\n            gigs[_gigId].status == Status.review,\n            \"Gig status is not valid.\"\n        );\n        gigs[_gigId].awardedTo = _awardedFreelancer;\n        gigs[_gigId].status = Status.awarded;\n        emit LogGigStatusChange(_gigId, gigs[_gigId].status);\n        transfer(gigs[_gigId].awardedTo, gigs[_gigId].compensation);\n\n        return _awardedFreelancer;\n\n    }\n    function transfer(address _to, uint _amount) private {\n        (bool success, ) = payable(_to).call{value: _amount}(\"\");\n        require(success, \"Failed to send Ether.\");\n    }\n\n}",
  "sourcePath": "/Users/manu/Blockchain/blockchain-developer-bootcamp-final-project/contracts/SmartGigs.sol",
  "compiler": {
    "name": "solc",
    "version": "0.8.9+commit.e5eed63a.Emscripten.clang"
  },
  "schemaVersion": "3.4.3",
  "updatedAt": "2021-10-04T09:30:16.871Z",
  "networkType": "ethereum",
  "devdoc": {
    "kind": "dev",
    "methods": {},
    "version": 1
  },
  "userdoc": {
    "kind": "user",
    "methods": {},
    "version": 1
  }
}