{
  "contractName": "SmarterContractFactory",
  "abi": [
    {
      "inputs": [
        {
          "internalType": "address",
          "name": "_implementation",
          "type": "address"
        }
      ],
      "stateMutability": "nonpayable",
      "type": "constructor"
    },
    {
      "anonymous": false,
      "inputs": [
        {
          "indexed": true,
          "internalType": "uint256",
          "name": "index",
          "type": "uint256"
        },
        {
          "indexed": false,
          "internalType": "address",
          "name": "contractAddress",
          "type": "address"
        },
        {
          "indexed": false,
          "internalType": "uint256[]",
          "name": "milestones",
          "type": "uint256[]"
        }
      ],
      "name": "LogNewContract",
      "type": "event"
    },
    {
      "inputs": [],
      "name": "contractCount",
      "outputs": [
        {
          "internalType": "uint256",
          "name": "",
          "type": "uint256"
        }
      ],
      "stateMutability": "view",
      "type": "function",
      "constant": true
    },
    {
      "inputs": [],
      "name": "implementation",
      "outputs": [
        {
          "internalType": "address",
          "name": "",
          "type": "address"
        }
      ],
      "stateMutability": "view",
      "type": "function",
      "constant": true
    },
    {
      "inputs": [
        {
          "internalType": "address",
          "name": "_client",
          "type": "address"
        },
        {
          "internalType": "address",
          "name": "_provider",
          "type": "address"
        },
        {
          "internalType": "uint256[]",
          "name": "_milestones",
          "type": "uint256[]"
        }
      ],
      "name": "create",
      "outputs": [
        {
          "internalType": "address",
          "name": "",
          "type": "address"
        }
      ],
      "stateMutability": "nonpayable",
      "type": "function"
    },
    {
      "inputs": [
        {
          "internalType": "uint256",
          "name": "_index",
          "type": "uint256"
        }
      ],
      "name": "getContractAddress",
      "outputs": [
        {
          "internalType": "address",
          "name": "",
          "type": "address"
        }
      ],
      "stateMutability": "view",
      "type": "function",
      "constant": true
    }
  ],
  "bytecode": "0x60a06040526000805534801561001457600080fd5b50604051610a48380380610a4883398181016040528101906100369190610143565b600073ffffffffffffffffffffffffffffffffffffffff168173ffffffffffffffffffffffffffffffffffffffff1614156100a6576040517f08c379a000000000000000000000000000000000000000000000000000000000815260040161009d906101f3565b60405180910390fd5b8073ffffffffffffffffffffffffffffffffffffffff1660808173ffffffffffffffffffffffffffffffffffffffff168152505050610213565b600080fd5b600073ffffffffffffffffffffffffffffffffffffffff82169050919050565b6000610110826100e5565b9050919050565b61012081610105565b811461012b57600080fd5b50565b60008151905061013d81610117565b92915050565b600060208284031215610159576101586100e0565b5b60006101678482850161012e565b91505092915050565b600082825260208201905092915050565b7f496d706c656d656e746174696f6e20636f6e747261637420616464726573732060008201527f696e76616c696400000000000000000000000000000000000000000000000000602082015250565b60006101dd602783610170565b91506101e882610181565b604082019050919050565b6000602082019050818103600083015261020c816101d0565b9050919050565b6080516108146102346000396000818160f5015261013601526108146000f3fe608060405234801561001057600080fd5b506004361061004c5760003560e01c80632bfdced7146100515780635c60da1b146100815780638736381a1461009f578063aefa7d98146100bd575b600080fd5b61006b6004803603810190610066919061045f565b6100ed565b60405161007891906104e2565b60405180910390f35b610089610134565b60405161009691906104e2565b60405180910390f35b6100a7610158565b6040516100b49190610516565b60405180910390f35b6100d760048036038101906100d2919061055d565b61015e565b6040516100e491906104e2565b60405180910390f35b6000806101197f000000000000000000000000000000000000000000000000000000000000000061019b565b90506101288187878787610270565b80915050949350505050565b7f000000000000000000000000000000000000000000000000000000000000000081565b60005481565b60006001600083815260200190815260200160002060009054906101000a900473ffffffffffffffffffffffffffffffffffffffff169050919050565b60006040517f3d602d80600a3d3981f3363d3d373d3d3d363d7300000000000000000000000081528260601b60148201527f5af43d82803e903d91602b57fd5bf3000000000000000000000000000000000060288201526037816000f0915050600073ffffffffffffffffffffffffffffffffffffffff168173ffffffffffffffffffffffffffffffffffffffff16141561026b576040517f08c379a0000000000000000000000000000000000000000000000000000000008152600401610262906105e7565b60405180910390fd5b919050565b8473ffffffffffffffffffffffffffffffffffffffff166344b77680858585856040518563ffffffff1660e01b81526004016102af9493929190610688565b600060405180830381600087803b1580156102c957600080fd5b505af11580156102dd573d6000803e3d6000fd5b50505050600080549050856001600083815260200190815260200160002060006101000a81548173ffffffffffffffffffffffffffffffffffffffff021916908373ffffffffffffffffffffffffffffffffffffffff160217905550600160005461034891906106f7565b600081905550807f3d527e2309973ce6b9898edef4cb79a4668e731dce40e36729b8e8888651e5bc878585604051610382939291906107ac565b60405180910390a2505050505050565b600080fd5b600080fd5b600073ffffffffffffffffffffffffffffffffffffffff82169050919050565b60006103c78261039c565b9050919050565b6103d7816103bc565b81146103e257600080fd5b50565b6000813590506103f4816103ce565b92915050565b600080fd5b600080fd5b600080fd5b60008083601f84011261041f5761041e6103fa565b5b8235905067ffffffffffffffff81111561043c5761043b6103ff565b5b60208301915083602082028301111561045857610457610404565b5b9250929050565b6000806000806060858703121561047957610478610392565b5b6000610487878288016103e5565b9450506020610498878288016103e5565b935050604085013567ffffffffffffffff8111156104b9576104b8610397565b5b6104c587828801610409565b925092505092959194509250565b6104dc816103bc565b82525050565b60006020820190506104f760008301846104d3565b92915050565b6000819050919050565b610510816104fd565b82525050565b600060208201905061052b6000830184610507565b92915050565b61053a816104fd565b811461054557600080fd5b50565b60008135905061055781610531565b92915050565b60006020828403121561057357610572610392565b5b600061058184828501610548565b91505092915050565b600082825260208201905092915050565b7f455243313136373a20637265617465206661696c656400000000000000000000600082015250565b60006105d160168361058a565b91506105dc8261059b565b602082019050919050565b60006020820190508181036000830152610600816105c4565b9050919050565b600082825260208201905092915050565b600080fd5b82818337600083830152505050565b60006106388385610607565b93507f07ffffffffffffffffffffffffffffffffffffffffffffffffffffffffffffff83111561066b5761066a610618565b5b60208302925061067c83858461061d565b82840190509392505050565b600060608201905061069d60008301876104d3565b6106aa60208301866104d3565b81810360408301526106bd81848661062c565b905095945050505050565b7f4e487b7100000000000000000000000000000000000000000000000000000000600052601160045260246000fd5b6000610702826104fd565b915061070d836104fd565b9250827fffffffffffffffffffffffffffffffffffffffffffffffffffffffffffffffff03821115610742576107416106c8565b5b828201905092915050565b6000819050919050565b600061077261076d6107688461039c565b61074d565b61039c565b9050919050565b600061078482610757565b9050919050565b600061079682610779565b9050919050565b6107a68161078b565b82525050565b60006040820190506107c1600083018661079d565b81810360208301526107d481848661062c565b905094935050505056fea2646970667358221220034cf786c48a20b1318d4c153a92b609d3a25ed714e8b1bcc1cecd62a689cfcf64736f6c63430008090033",
  "immutableReferences": {
    "497": [
      {
        "length": 32,
        "start": 245
      },
      {
        "length": 32,
        "start": 310
      }
    ]
  },
  "source": "// SPDX-License-Identifier: MIT\npragma solidity >=0.8.9 <0.9.0;\n\nimport \"@openzeppelin/contracts/proxy/Clones.sol\";\nimport \"./interfaces/ISmarterContractFactory.sol\";\nimport \"./interfaces/ISmarterContract.sol\";\n\n/// @title SmarterContractFactory - SmarterContract factory contract\n/// @author Manuel Kirstetter\n/// @notice Use for testing purpose only, no guarantee\n/// @custom:experimental This is an experimental contract.\ncontract SmarterContractFactory is ISmarterContractFactory {\n    /// @notice count of all 'child' contracts\n    /// @return returns the count of 'child' contracts\n    uint256 public contractCount = 0;\n\n    /// @notice contract address from which all 'child' contract should be implemented from\n    /// @dev immutable\n    /// @return returns implementation contract address\n    address public immutable implementation;\n\n    mapping(uint256 => address) internal _contracts;\n\n    /// @notice event fired at 'child' contract creation\n    /// @param index contract id/index\n    /// @param contractAddress created contract address\n    /// @param milestones array of all created contract milestones\n    event LogNewContract(\n        uint256 indexed index,\n        address contractAddress,\n        uint256[] milestones\n    );\n\n    constructor(address _implementation) {\n        require(_implementation != address(0), \"Implementation contract address invalid\");\n        implementation = _implementation;\n    }\n\n    /// @notice calls initialization of a new contract with provided params\n    /// @param _contractAddress contract address\n    /// @param _client client address\n    /// @param _provider provider address\n    /// @param _milestones array of milestone amounts\n    /// @dev _milestones is available only during this function call\n    function _init(\n        address payable _contractAddress,\n        address _client,\n        address _provider,\n        uint256[] calldata _milestones\n    ) internal {\n        ISmarterContract(_contractAddress).init(\n            _client,\n            _provider,\n            _milestones\n        );\n\n        uint256 contractId = contractCount;\n        _contracts[contractId] = _contractAddress;\n        contractCount = contractCount + 1;\n\n        emit LogNewContract(contractId, _contractAddress, _milestones);\n    }\n\n    /// @notice generates contract address calls initialization of a new contract with provided params\n    /// @param _client client address\n    /// @param _provider provider address\n    /// @param _milestones array of milestone amounts\n    /// @dev _milestones is available only during this function call\n    /// @return Returns created contract address\n    function create(\n        address _client,\n        address _provider,\n        uint256[] calldata _milestones\n    ) external override returns (address) {\n        address payable contractAddress = payable(address(Clones.clone(implementation)));\n\n        _init(\n            contractAddress,\n            _client,\n            _provider,\n            _milestones\n        );\n\n        return contractAddress;\n    }\n\n    /// @notice to get contract address of id/index \n    /// @param _index contract id/index\n    /// @return Returns contract address of id/index\n    function getContractAddress(uint256 _index) public view returns (address) {\n        return _contracts[_index];\n    }\n}",
  "sourcePath": "/Users/manu/Blockchain/blockchain-developer-bootcamp-final-project/contracts/SmarterContractFactory.sol",
  "compiler": {
    "name": "solc",
    "version": "0.8.9+commit.e5eed63a.Emscripten.clang"
  },
  "schemaVersion": "3.4.3",
  "updatedAt": "2021-11-25T08:19:28.798Z",
  "networkType": "ethereum",
  "devdoc": {
    "author": "Manuel Kirstetter",
    "custom:experimental": "This is an experimental contract.",
    "events": {
      "LogNewContract(uint256,address,uint256[])": {
        "params": {
          "contractAddress": "created contract address",
          "index": "contract id/index",
          "milestones": "array of all created contract milestones"
        }
      }
    },
    "kind": "dev",
    "methods": {
      "create(address,address,uint256[])": {
        "details": "_milestones is available only during this function call",
        "params": {
          "_client": "client address",
          "_milestones": "array of milestone amounts",
          "_provider": "provider address"
        },
        "returns": {
          "_0": "Returns created contract address"
        }
      },
      "getContractAddress(uint256)": {
        "params": {
          "_index": "contract id/index"
        },
        "returns": {
          "_0": "Returns contract address of id/index"
        }
      }
    },
    "stateVariables": {
      "contractCount": {
        "return": "returns the count of 'child' contracts",
        "returns": {
          "_0": "returns the count of 'child' contracts"
        }
      },
      "implementation": {
        "details": "immutable",
        "return": "returns implementation contract address",
        "returns": {
          "_0": "returns implementation contract address"
        }
      }
    },
    "title": "SmarterContractFactory - SmarterContract factory contract",
    "version": 1
  },
  "userdoc": {
    "events": {
      "LogNewContract(uint256,address,uint256[])": {
        "notice": "event fired at 'child' contract creation"
      }
    },
    "kind": "user",
    "methods": {
      "contractCount()": {
        "notice": "count of all 'child' contracts"
      },
      "create(address,address,uint256[])": {
        "notice": "generates contract address calls initialization of a new contract with provided params"
      },
      "getContractAddress(uint256)": {
        "notice": "to get contract address of id/index "
      },
      "implementation()": {
        "notice": "contract address from which all 'child' contract should be implemented from"
      }
    },
    "notice": "Use for testing purpose only, no guarantee",
    "version": 1
  }
}